{
  "contractName": "GiveawayModule",
  "abi": [
    {
      "inputs": [],
      "stateMutability": "nonpayable",
      "type": "constructor"
    },
    {
      "anonymous": false,
      "inputs": [
        {
          "indexed": true,
          "internalType": "address",
          "name": "_from",
          "type": "address"
        },
        {
          "indexed": true,
          "internalType": "address",
          "name": "_to",
          "type": "address"
        },
        {
          "indexed": false,
          "internalType": "uint256",
          "name": "_value",
          "type": "uint256"
        }
      ],
      "name": "SendPrize",
      "type": "event"
    },
    {
      "anonymous": false,
      "inputs": [
        {
          "indexed": false,
          "internalType": "bytes32",
          "name": "requestId",
          "type": "bytes32"
        },
        {
          "indexed": false,
          "internalType": "uint256",
          "name": "randomness",
          "type": "uint256"
        }
      ],
      "name": "TestDone",
      "type": "event"
    },
    {
      "inputs": [],
      "name": "randomResult",
      "outputs": [
        {
          "internalType": "uint256",
          "name": "",
          "type": "uint256"
        }
      ],
      "stateMutability": "view",
      "type": "function",
      "constant": true
    },
    {
      "inputs": [
        {
          "internalType": "bytes32",
          "name": "requestId",
          "type": "bytes32"
        },
        {
          "internalType": "uint256",
          "name": "randomness",
          "type": "uint256"
        }
      ],
      "name": "rawFulfillRandomness",
      "outputs": [],
      "stateMutability": "nonpayable",
      "type": "function"
    },
    {
      "inputs": [],
      "name": "getRandomNumber",
      "outputs": [
        {
          "internalType": "bytes32",
          "name": "requestId",
          "type": "bytes32"
        }
      ],
      "stateMutability": "nonpayable",
      "type": "function"
    },
    {
      "inputs": [
        {
          "internalType": "uint256",
          "name": "profileID",
          "type": "uint256"
        }
      ],
      "name": "getFollower",
      "outputs": [
        {
          "internalType": "address[]",
          "name": "follower",
          "type": "address[]"
        }
      ],
      "stateMutability": "view",
      "type": "function",
      "constant": true
    },
    {
      "inputs": [
        {
          "internalType": "uint256",
          "name": "profileID",
          "type": "uint256"
        }
      ],
      "name": "getUniqueFollower",
      "outputs": [
        {
          "internalType": "address[]",
          "name": "follower",
          "type": "address[]"
        }
      ],
      "stateMutability": "view",
      "type": "function",
      "constant": true
    },
    {
      "inputs": [
        {
          "internalType": "uint256",
          "name": "profileID",
          "type": "uint256"
        }
      ],
      "name": "createGiveaway",
      "outputs": [
        {
          "internalType": "bytes32",
          "name": "requestId",
          "type": "bytes32"
        }
      ],
      "stateMutability": "payable",
      "type": "function",
      "payable": true
    },
    {
      "inputs": [
        {
          "internalType": "string",
          "name": "handle",
          "type": "string"
        }
      ],
      "name": "getProfileIdByHandle",
      "outputs": [
        {
          "internalType": "uint256",
          "name": "",
          "type": "uint256"
        }
      ],
      "stateMutability": "view",
      "type": "function",
      "constant": true
    },
    {
      "inputs": [
        {
          "internalType": "uint256",
          "name": "profileID",
          "type": "uint256"
        }
      ],
      "name": "getGiveaways",
      "outputs": [
        {
          "components": [
            {
              "internalType": "address",
              "name": "donor",
              "type": "address"
            },
            {
              "internalType": "uint256",
              "name": "profileID",
              "type": "uint256"
            },
            {
              "internalType": "uint256",
              "name": "amount",
              "type": "uint256"
            },
            {
              "internalType": "address",
              "name": "winner",
              "type": "address"
            }
          ],
          "internalType": "struct GiveawayModule.Giveaway[]",
          "name": "",
          "type": "tuple[]"
        }
      ],
      "stateMutability": "view",
      "type": "function",
      "constant": true
    },
    {
      "inputs": [
        {
          "internalType": "uint256",
          "name": "profileID",
          "type": "uint256"
        }
      ],
      "name": "getHandle",
      "outputs": [
        {
          "internalType": "string",
          "name": "",
          "type": "string"
        }
      ],
      "stateMutability": "view",
      "type": "function",
      "constant": true
    }
  ],
  "bytecode": "0x60c060405234801561001057600080fd5b50738c7382f9d8f56b33781fe506e897a4f1e2d1725573326c977e6efc84e512bb9c30f76e30c160ed06fb8173ffffffffffffffffffffffffffffffffffffffff1660a08173ffffffffffffffffffffffffffffffffffffffff16815250508073ffffffffffffffffffffffffffffffffffffffff1660808173ffffffffffffffffffffffffffffffffffffffff16815250505050600073d7b3481de00995046c7850bce9a5196b7605c367905080600160006101000a81548173ffffffffffffffffffffffffffffffffffffffff021916908373ffffffffffffffffffffffffffffffffffffffff1602179055507f6e75b569a01ef56d18cab6a8e71e6600d6ce853834d4a5748b720d06f878b3a460001b600381905550655af3107a4000600481905550600060058190555060006006819055505060805160a05161214c61017a600039600081816109ea01526110df015260008181610b3501526110a3015261214c6000f3fe6080604052600436106100865760003560e01c806394985ddd1161005957806394985ddd1461016d578063bf24d36614610196578063dbdff2c1146101c6578063ec7efa52146101f1578063ec81d1941461022e57610086565b806315a8510c1461008b57806320fa728a146100c857806342619f66146101055780635542b27614610130575b600080fd5b34801561009757600080fd5b506100b260048036038101906100ad91906114a2565b61026b565b6040516100bf91906115bf565b60405180910390f35b3480156100d457600080fd5b506100ef60048036038101906100ea9190611646565b610557565b6040516100fc91906116a2565b60405180910390f35b34801561011157600080fd5b5061011a6105ff565b60405161012791906116a2565b60405180910390f35b34801561013c57600080fd5b50610157600480360381019061015291906114a2565b610605565b60405161016491906115bf565b60405180910390f35b34801561017957600080fd5b50610194600480360381019061018f91906116f3565b6109e8565b005b6101b060048036038101906101ab91906114a2565b610a84565b6040516101bd9190611742565b60405180910390f35b3480156101d257600080fd5b506101db610b2e565b6040516101e89190611742565b60405180910390f35b3480156101fd57600080fd5b50610218600480360381019061021391906114a2565b610c20565b6040516102259190611870565b60405180910390f35b34801561023a57600080fd5b50610255600480360381019061025091906114a2565b610d52565b604051610262919061192b565b60405180910390f35b60606000600160009054906101000a900473ffffffffffffffffffffffffffffffffffffffff1673ffffffffffffffffffffffffffffffffffffffff1663a9ec6563846040518263ffffffff1660e01b81526004016102ca91906116a2565b602060405180830381865afa1580156102e7573d6000803e3d6000fd5b505050506040513d601f19601f8201168201806040525081019061030b9190611979565b9050600073ffffffffffffffffffffffffffffffffffffffff168173ffffffffffffffffffffffffffffffffffffffff160361039357600067ffffffffffffffff81111561035c5761035b6119a6565b5b60405190808252806020026020018201604052801561038a5781602001602082028036833780820191505090505b50915050610552565b600081905060008173ffffffffffffffffffffffffffffffffffffffff166318160ddd6040518163ffffffff1660e01b8152600401602060405180830381865afa1580156103e5573d6000803e3d6000fd5b505050506040513d601f19601f8201168201806040525081019061040991906119ea565b905060008167ffffffffffffffff811115610427576104266119a6565b5b6040519080825280602002602001820160405280156104555781602001602082028036833780820191505090505b50905060005b82811015610549578373ffffffffffffffffffffffffffffffffffffffff16636352211e60018361048c9190611a46565b6040518263ffffffff1660e01b81526004016104a891906116a2565b602060405180830381865afa1580156104c5573d6000803e3d6000fd5b505050506040513d601f19601f820116820180604052508101906104e99190611979565b8282815181106104fc576104fb611a9c565b5b602002602001019073ffffffffffffffffffffffffffffffffffffffff16908173ffffffffffffffffffffffffffffffffffffffff1681525050808061054190611acb565b91505061045b565b50809450505050505b919050565b6000600160009054906101000a900473ffffffffffffffffffffffffffffffffffffffff1673ffffffffffffffffffffffffffffffffffffffff166320fa728a84846040518363ffffffff1660e01b81526004016105b6929190611b4f565b602060405180830381865afa1580156105d3573d6000803e3d6000fd5b505050506040513d601f19601f820116820180604052508101906105f791906119ea565b905092915050565b60085481565b60606000600160009054906101000a900473ffffffffffffffffffffffffffffffffffffffff1673ffffffffffffffffffffffffffffffffffffffff1663a9ec6563846040518263ffffffff1660e01b815260040161066491906116a2565b602060405180830381865afa158015610681573d6000803e3d6000fd5b505050506040513d601f19601f820116820180604052508101906106a59190611979565b905060008173ffffffffffffffffffffffffffffffffffffffff166318160ddd6040518163ffffffff1660e01b8152600401602060405180830381865afa1580156106f4573d6000803e3d6000fd5b505050506040513d601f19601f8201168201806040525081019061071891906119ea565b905060008167ffffffffffffffff811115610736576107356119a6565b5b6040519080825280602002602001820160405280156107645781602001602082028036833780820191505090505b5090506000805b838110156108f5576000808673ffffffffffffffffffffffffffffffffffffffff16636352211e60018561079f9190611a46565b6040518263ffffffff1660e01b81526004016107bb91906116a2565b602060405180830381865afa1580156107d8573d6000803e3d6000fd5b505050506040513d601f19601f820116820180604052508101906107fc9190611979565b905060005b83811015610880578173ffffffffffffffffffffffffffffffffffffffff1686828151811061083357610832611a9c565b5b602002602001015173ffffffffffffffffffffffffffffffffffffffff160361086d5760019250848061086590611acb565b955050610880565b838061087890611acb565b945050610801565b50816108e057808585856108949190611b73565b815181106108a5576108a4611a9c565b5b602002602001019073ffffffffffffffffffffffffffffffffffffffff16908173ffffffffffffffffffffffffffffffffffffffff16815250505b505080806108ed90611acb565b91505061076b565b50600081846109049190611b73565b905060008167ffffffffffffffff811115610922576109216119a6565b5b6040519080825280602002602001820160405280156109505781602001602082028036833780820191505090505b50905060005b828110156109d95784818151811061097157610970611a9c565b5b602002602001015182828151811061098c5761098b611a9c565b5b602002602001019073ffffffffffffffffffffffffffffffffffffffff16908173ffffffffffffffffffffffffffffffffffffffff168152505080806109d190611acb565b915050610956565b50809650505050505050919050565b7f000000000000000000000000000000000000000000000000000000000000000073ffffffffffffffffffffffffffffffffffffffff163373ffffffffffffffffffffffffffffffffffffffff1614610a76576040517f08c379a0000000000000000000000000000000000000000000000000000000008152600401610a6d90611bf3565b60405180910390fd5b610a808282610dfc565b5050565b60008060055414610aca576040517f08c379a0000000000000000000000000000000000000000000000000000000008152600401610ac190611c85565b60405180910390fd5b816005819055503460068190555033600760006101000a81548173ffffffffffffffffffffffffffffffffffffffff021916908373ffffffffffffffffffffffffffffffffffffffff160217905550610b2760035460045461109f565b9050919050565b60006004547f000000000000000000000000000000000000000000000000000000000000000073ffffffffffffffffffffffffffffffffffffffff166370a08231306040518263ffffffff1660e01b8152600401610b8c9190611cb4565b602060405180830381865afa158015610ba9573d6000803e3d6000fd5b505050506040513d601f19601f82011682018060405250810190610bcd91906119ea565b11610c0d576040517f08c379a0000000000000000000000000000000000000000000000000000000008152600401610c0490611d41565b60405180910390fd5b610c1b60035460045461109f565b905090565b606060026000838152602001908152602001600020805480602002602001604051908101604052809291908181526020016000905b82821015610d4757838290600052602060002090600402016040518060800160405290816000820160009054906101000a900473ffffffffffffffffffffffffffffffffffffffff1673ffffffffffffffffffffffffffffffffffffffff1673ffffffffffffffffffffffffffffffffffffffff16815260200160018201548152602001600282015481526020016003820160009054906101000a900473ffffffffffffffffffffffffffffffffffffffff1673ffffffffffffffffffffffffffffffffffffffff1673ffffffffffffffffffffffffffffffffffffffff168152505081526020019060010190610c55565b505050509050919050565b6060600160009054906101000a900473ffffffffffffffffffffffffffffffffffffffff1673ffffffffffffffffffffffffffffffffffffffff1663ec81d194836040518263ffffffff1660e01b8152600401610daf91906116a2565b600060405180830381865afa158015610dcc573d6000803e3d6000fd5b505050506040513d6000823e3d601f19601f82011682018060405250810190610df59190611e53565b9050919050565b806008819055507f411ab50ace9885500c49a7acb36add47f2b02b8b604dc18059cfe1fdd4d21fe88282604051610e34929190611e9c565b60405180910390a1600060055490506000610e4f82846111ef565b90506000600760009054906101000a900473ffffffffffffffffffffffffffffffffffffffff16905060006006549050600060405180608001604052808473ffffffffffffffffffffffffffffffffffffffff1681526020018681526020018381526020018573ffffffffffffffffffffffffffffffffffffffff1681525090506000808573ffffffffffffffffffffffffffffffffffffffff1684604051610ef790611ef6565b60006040518083038185875af1925050503d8060008114610f34576040519150601f19603f3d011682016040523d82523d6000602084013e610f39565b606091505b5091509150600060058190555060006006819055508573ffffffffffffffffffffffffffffffffffffffff168573ffffffffffffffffffffffffffffffffffffffff167f97bda46e04e64f71ccb885f6f7505123afa924649d2c74da63444c39589ad3b586604051610fab91906116a2565b60405180910390a36002600088815260200190815260200160002083908060018154018082558091505060019003906000526020600020906004020160009091909190915060008201518160000160006101000a81548173ffffffffffffffffffffffffffffffffffffffff021916908373ffffffffffffffffffffffffffffffffffffffff160217905550602082015181600101556040820151816002015560608201518160030160006101000a81548173ffffffffffffffffffffffffffffffffffffffff021916908373ffffffffffffffffffffffffffffffffffffffff1602179055505050505050505050505050565b60007f000000000000000000000000000000000000000000000000000000000000000073ffffffffffffffffffffffffffffffffffffffff16634000aea07f000000000000000000000000000000000000000000000000000000000000000084866000604051602001611113929190611e9c565b6040516020818303038152906040526040518463ffffffff1660e01b815260040161114093929190611f60565b6020604051808303816000875af115801561115f573d6000803e3d6000fd5b505050506040513d601f19601f820116820180604052508101906111839190611fd6565b5060006111a584600030600080898152602001908152602001600020546113e9565b90506001600080868152602001908152602001600020546111c69190611a46565b600080868152602001908152602001600020819055506111e68482611425565b91505092915050565b600080600160009054906101000a900473ffffffffffffffffffffffffffffffffffffffff1673ffffffffffffffffffffffffffffffffffffffff1663a9ec6563856040518263ffffffff1660e01b815260040161124d91906116a2565b602060405180830381865afa15801561126a573d6000803e3d6000fd5b505050506040513d601f19601f8201168201806040525081019061128e9190611979565b9050600073ffffffffffffffffffffffffffffffffffffffff168173ffffffffffffffffffffffffffffffffffffffff16036112ce5760009150506113e3565b600081905060008173ffffffffffffffffffffffffffffffffffffffff166318160ddd6040518163ffffffff1660e01b8152600401602060405180830381865afa158015611320573d6000803e3d6000fd5b505050506040513d601f19601f8201168201806040525081019061134491906119ea565b9050600081866113549190612032565b60016113609190611a46565b90508273ffffffffffffffffffffffffffffffffffffffff16636352211e826040518263ffffffff1660e01b815260040161139b91906116a2565b602060405180830381865afa1580156113b8573d6000803e3d6000fd5b505050506040513d601f19601f820116820180604052508101906113dc9190611979565b9450505050505b92915050565b6000848484846040516020016114029493929190612063565b6040516020818303038152906040528051906020012060001c9050949350505050565b6000828260405160200161143a9291906120ea565b60405160208183030381529060405280519060200120905092915050565b6000604051905090565b600080fd5b600080fd5b6000819050919050565b61147f8161146c565b811461148a57600080fd5b50565b60008135905061149c81611476565b92915050565b6000602082840312156114b8576114b7611462565b5b60006114c68482850161148d565b91505092915050565b600081519050919050565b600082825260208201905092915050565b6000819050602082019050919050565b600073ffffffffffffffffffffffffffffffffffffffff82169050919050565b6000611526826114fb565b9050919050565b6115368161151b565b82525050565b6000611548838361152d565b60208301905092915050565b6000602082019050919050565b600061156c826114cf565b61157681856114da565b9350611581836114eb565b8060005b838110156115b2578151611599888261153c565b97506115a483611554565b925050600181019050611585565b5085935050505092915050565b600060208201905081810360008301526115d98184611561565b905092915050565b600080fd5b600080fd5b600080fd5b60008083601f840112611606576116056115e1565b5b8235905067ffffffffffffffff811115611623576116226115e6565b5b60208301915083600182028301111561163f5761163e6115eb565b5b9250929050565b6000806020838503121561165d5761165c611462565b5b600083013567ffffffffffffffff81111561167b5761167a611467565b5b611687858286016115f0565b92509250509250929050565b61169c8161146c565b82525050565b60006020820190506116b76000830184611693565b92915050565b6000819050919050565b6116d0816116bd565b81146116db57600080fd5b50565b6000813590506116ed816116c7565b92915050565b6000806040838503121561170a57611709611462565b5b6000611718858286016116de565b92505060206117298582860161148d565b9150509250929050565b61173c816116bd565b82525050565b60006020820190506117576000830184611733565b92915050565b600081519050919050565b600082825260208201905092915050565b6000819050602082019050919050565b6117928161146c565b82525050565b6080820160008201516117ae600085018261152d565b5060208201516117c16020850182611789565b5060408201516117d46040850182611789565b5060608201516117e7606085018261152d565b50505050565b60006117f98383611798565b60808301905092915050565b6000602082019050919050565b600061181d8261175d565b6118278185611768565b935061183283611779565b8060005b8381101561186357815161184a88826117ed565b975061185583611805565b925050600181019050611836565b5085935050505092915050565b6000602082019050818103600083015261188a8184611812565b905092915050565b600081519050919050565b600082825260208201905092915050565b60005b838110156118cc5780820151818401526020810190506118b1565b838111156118db576000848401525b50505050565b6000601f19601f8301169050919050565b60006118fd82611892565b611907818561189d565b93506119178185602086016118ae565b611920816118e1565b840191505092915050565b6000602082019050818103600083015261194581846118f2565b905092915050565b6119568161151b565b811461196157600080fd5b50565b6000815190506119738161194d565b92915050565b60006020828403121561198f5761198e611462565b5b600061199d84828501611964565b91505092915050565b7f4e487b7100000000000000000000000000000000000000000000000000000000600052604160045260246000fd5b6000815190506119e481611476565b92915050565b600060208284031215611a00576119ff611462565b5b6000611a0e848285016119d5565b91505092915050565b7f4e487b7100000000000000000000000000000000000000000000000000000000600052601160045260246000fd5b6000611a518261146c565b9150611a5c8361146c565b9250827fffffffffffffffffffffffffffffffffffffffffffffffffffffffffffffffff03821115611a9157611a90611a17565b5b828201905092915050565b7f4e487b7100000000000000000000000000000000000000000000000000000000600052603260045260246000fd5b6000611ad68261146c565b91507fffffffffffffffffffffffffffffffffffffffffffffffffffffffffffffffff8203611b0857611b07611a17565b5b600182019050919050565b82818337600083830152505050565b6000611b2e838561189d565b9350611b3b838584611b13565b611b44836118e1565b840190509392505050565b60006020820190508181036000830152611b6a818486611b22565b90509392505050565b6000611b7e8261146c565b9150611b898361146c565b925082821015611b9c57611b9b611a17565b5b828203905092915050565b7f4f6e6c7920565246436f6f7264696e61746f722063616e2066756c66696c6c00600082015250565b6000611bdd601f8361189d565b9150611be882611ba7565b602082019050919050565b60006020820190508181036000830152611c0c81611bd0565b9050919050565b7f4120726166666c652069732063757272656e746c79206f6e676f696e672e205060008201527f6c6561736520776169742061206269742e000000000000000000000000000000602082015250565b6000611c6f60318361189d565b9150611c7a82611c13565b604082019050919050565b60006020820190508181036000830152611c9e81611c62565b9050919050565b611cae8161151b565b82525050565b6000602082019050611cc96000830184611ca5565b92915050565b7f4e6f7420656e6f756768204c494e4b202d2066696c6c20636f6e74726163742060008201527f7769746820666175636574000000000000000000000000000000000000000000602082015250565b6000611d2b602b8361189d565b9150611d3682611ccf565b604082019050919050565b60006020820190508181036000830152611d5a81611d1e565b9050919050565b600080fd5b611d6f826118e1565b810181811067ffffffffffffffff82111715611d8e57611d8d6119a6565b5b80604052505050565b6000611da1611458565b9050611dad8282611d66565b919050565b600067ffffffffffffffff821115611dcd57611dcc6119a6565b5b611dd6826118e1565b9050602081019050919050565b6000611df6611df184611db2565b611d97565b905082815260208101848484011115611e1257611e11611d61565b5b611e1d8482856118ae565b509392505050565b600082601f830112611e3a57611e396115e1565b5b8151611e4a848260208601611de3565b91505092915050565b600060208284031215611e6957611e68611462565b5b600082015167ffffffffffffffff811115611e8757611e86611467565b5b611e9384828501611e25565b91505092915050565b6000604082019050611eb16000830185611733565b611ebe6020830184611693565b9392505050565b600081905092915050565b50565b6000611ee0600083611ec5565b9150611eeb82611ed0565b600082019050919050565b6000611f0182611ed3565b9150819050919050565b600081519050919050565b600082825260208201905092915050565b6000611f3282611f0b565b611f3c8185611f16565b9350611f4c8185602086016118ae565b611f55816118e1565b840191505092915050565b6000606082019050611f756000830186611ca5565b611f826020830185611693565b8181036040830152611f948184611f27565b9050949350505050565b60008115159050919050565b611fb381611f9e565b8114611fbe57600080fd5b50565b600081519050611fd081611faa565b92915050565b600060208284031215611fec57611feb611462565b5b6000611ffa84828501611fc1565b91505092915050565b7f4e487b7100000000000000000000000000000000000000000000000000000000600052601260045260246000fd5b600061203d8261146c565b91506120488361146c565b92508261205857612057612003565b5b828206905092915050565b60006080820190506120786000830187611733565b6120856020830186611693565b6120926040830185611ca5565b61209f6060830184611693565b95945050505050565b6000819050919050565b6120c36120be826116bd565b6120a8565b82525050565b6000819050919050565b6120e46120df8261146c565b6120c9565b82525050565b60006120f682856120b2565b60208201915061210682846120d3565b602082019150819050939250505056fea264697066735822122019e9f9afbbca7d51084718bf47fc06319096f9a99d50424319e4f54401d75d5464736f6c634300080d0033",
  "immutableReferences": {
    "73": [
      {
        "length": 32,
        "start": 2869
      },
      {
        "length": 32,
        "start": 4259
      }
    ],
    "75": [
      {
        "length": 32,
        "start": 2538
      },
      {
        "length": 32,
        "start": 4319
      }
    ]
  },
  "source": "// SPDX-License-Identifier: MIT\npragma solidity ^0.8.0;\npragma experimental ABIEncoderV2;\n\n//import \"@chainlink/contracts/src/v0.6/ChainlinkClient.sol\";\nimport \"hardhat/console.sol\";\nimport \"@openzeppelin/contracts/token/ERC721/extensions/IERC721Enumerable.sol\";\nimport \"@chainlink/contracts/src/v0.8/VRFConsumerBase.sol\";\n\ncontract LensHub {\n    function getFollowNFT(uint256 profileId) external view returns (address) {return 0x0000000000000000000000000000000000000000;}\n\n    function defaultProfile(address wallet) external view returns (uint256) {return 0;}\n\n    function getProfileIdByHandle(string calldata handle) external view returns (uint256) {return 0;}\n\n    function getHandle(uint256 profileId) external view returns (string memory) {return \"\";}\n}\n\ncontract GiveawayModule is VRFConsumerBase {\n    event SendPrize(address indexed _from, address indexed _to, uint256 _value);\n    event TestDone(bytes32 requestId, uint256 randomness);\n\n    LensHub _lensHub;\n    mapping(uint256 => Giveaway[]) _giveaways;\n\n    bytes32 internal keyHash;\n    uint256 internal fee;\n    \n    uint256 internal profileIDOfOngoingRaffle;\n    uint256 internal prizeOfOngoingRaffle;\n    address internal donorOfOngoingRaffle;\n\n    uint256 public randomResult;\n\n    struct Giveaway {\n        address donor;\n        uint256 profileID; // this can be removed since it is the key of the mapping\n        uint256 amount;\n        address winner;\n    }\n\n    constructor() VRFConsumerBase(\n            0x8C7382F9D8f56b33781fE506E897a4F1e2d17255, // VRF Coordinator\n            0x326C977E6efc84E512bB9C30f76E30c160eD06FB  // LINK Token\n        ) {\n        address watch_addr = 0xd7B3481De00995046C7850bCe9a5196B7605c367; // lens hub proxy on mumbai testnet\n        _lensHub = LensHub(watch_addr);\n        keyHash = 0x6e75b569a01ef56d18cab6a8e71e6600d6ce853834d4a5748b720d06f878b3a4;\n        fee = 0.0001 * 10 ** 18; // 0.0001 LINK\n        profileIDOfOngoingRaffle = 0;\n        prizeOfOngoingRaffle = 0;\n    }\n\n    /** \n     * Requests randomness \n     */\n    function getRandomNumber() public returns (bytes32 requestId) {\n        require(LINK.balanceOf(address(this)) > fee, \"Not enough LINK - fill contract with faucet\");\n        return requestRandomness(keyHash, fee);\n    }\n\n    /**\n     * Callback function used by VRF Coordinator\n     */\n    function fulfillRandomness(bytes32 requestId, uint256 randomness) internal override {\n        randomResult = randomness;\n        emit TestDone(requestId, randomness);\n        uint256 profileID = profileIDOfOngoingRaffle;\n        address winner = _getRandomFollowerAddress(profileID, randomness);\n        address donor = donorOfOngoingRaffle; \n        uint256 prize = prizeOfOngoingRaffle;\n        Giveaway memory giveaway = Giveaway(donor, profileID, prize, winner);\n        (bool sent, bytes memory data) = payable(address(winner)).call{value : prize}(\"\");\n        profileIDOfOngoingRaffle = 0;\n        prizeOfOngoingRaffle = 0;\n        emit SendPrize(donor, winner, prize);\n        _giveaways[profileID].push(giveaway);\n    }\n\n    function getFollower(uint256 profileID) public view returns (address[] memory follower){\n        address followNFTAddress = _lensHub.getFollowNFT(profileID);\n        // if a lens profile has no followers, the followNFT address is 0x0 \n        if (followNFTAddress == address(0)) {\n            return new address[](0);\n        }\n        IERC721Enumerable followNFT = IERC721Enumerable(followNFTAddress);\n        uint256 totalSupply = followNFT.totalSupply();\n        address[] memory follower = new address[](totalSupply);\n        for (uint256 i = 0; i < totalSupply; i++) {\n            follower[i] = followNFT.ownerOf(i + 1);\n        }\n        return follower;\n    }\n\n    function getUniqueFollower(uint256 profileID) public view returns (address[] memory follower){\n        IERC721Enumerable followNFT = IERC721Enumerable(_lensHub.getFollowNFT(profileID));\n        uint256 totalSupply = followNFT.totalSupply();\n        address[] memory follower = new address[](totalSupply);\n        uint256 duplicateCounter = 0;\n        for (uint256 i = 0; i < totalSupply; i++) {\n            bool isDuplicate = false;\n            address followerAddress = followNFT.ownerOf(i + 1);\n            for (uint256 j = 0; j < i; i++) {\n                if (follower[j] == followerAddress) {\n                    isDuplicate = true;\n                    duplicateCounter++;\n                    break;\n                }\n            }\n            if (!isDuplicate) {\n                follower[i - duplicateCounter] = followerAddress;\n            }\n        }\n        uint256 nUniqueFollower = totalSupply - duplicateCounter;\n        address[] memory uniqueFollower = new address[](nUniqueFollower);\n        for (uint256 i = 0; i < nUniqueFollower; i++) {\n            uniqueFollower[i] = follower[i];\n        }\n        return uniqueFollower;\n    }\n\n    function createGiveaway(uint256 profileID) public payable returns (bytes32 requestId) {\n        require(profileIDOfOngoingRaffle == 0, \"A raffle is currently ongoing. Please wait a bit.\");\n        profileIDOfOngoingRaffle = profileID;\n        prizeOfOngoingRaffle = msg.value;\n        donorOfOngoingRaffle = msg.sender;\n        //uint256 randomNumber = uint256(keccak256(abi.encodePacked(block.difficulty, block.timestamp)));\n        return requestRandomness(keyHash, fee);\n    }\n\n    function getProfileIdByHandle(string calldata handle) public view returns (uint256){\n        return _lensHub.getProfileIdByHandle(handle);\n    }\n\n    function getGiveaways(uint256 profileID) public view returns (Giveaway[] memory) {\n        return _giveaways[profileID];\n    }\n\n    function _getRandomFollowerAddress(uint256 profileID, uint256 randomNumber) private view returns (address) {\n        address followNFTAddress = _lensHub.getFollowNFT(profileID);\n        if (followNFTAddress == address(0)) {\n            return address(0);\n        }\n        IERC721Enumerable followNFT = IERC721Enumerable(followNFTAddress);\n        uint256 totalSupply = followNFT.totalSupply();\n        uint256 winnerIndex = 1 + randomNumber % totalSupply;\n        return followNFT.ownerOf(winnerIndex);\n    }\n\n    function getHandle(uint256 profileID) public view returns (string memory) {\n        return _lensHub.getHandle(profileID);\n    }\n\n}\n",
  "sourcePath": "/Users/alex/crypto/lfgrow/lens-giveaway/contracts/GiveawayModule.sol",
  "compiler": {
    "name": "solc",
    "version": "0.8.13+commit.abaa5c0e.Emscripten.clang"
  },
  "schemaVersion": "3.4.5",
  "updatedAt": "2022-03-23T09:03:54.393Z",
  "networkType": "ethereum",
  "devdoc": {
    "kind": "dev",
    "methods": {},
    "version": 1
  },
  "userdoc": {
    "kind": "user",
    "methods": {
      "getRandomNumber()": {
        "notice": "Requests randomness "
      }
    },
    "version": 1
  }
}