{
  "contractName": "GiveawayModule",
  "abi": [
    {
      "inputs": [],
      "stateMutability": "nonpayable",
      "type": "constructor"
    },
    {
      "anonymous": false,
      "inputs": [
        {
          "indexed": true,
          "internalType": "address",
          "name": "_from",
          "type": "address"
        },
        {
          "indexed": true,
          "internalType": "address",
          "name": "_to",
          "type": "address"
        },
        {
          "indexed": false,
          "internalType": "uint256",
          "name": "_value",
          "type": "uint256"
        }
      ],
      "name": "SendPrize",
      "type": "event"
    },
    {
      "inputs": [
        {
          "internalType": "uint256",
          "name": "profileID",
          "type": "uint256"
        }
      ],
      "name": "getFollower",
      "outputs": [
        {
          "internalType": "address[]",
          "name": "follower",
          "type": "address[]"
        }
      ],
      "stateMutability": "view",
      "type": "function",
      "constant": true
    },
    {
      "inputs": [
        {
          "internalType": "uint256",
          "name": "profileID",
          "type": "uint256"
        }
      ],
      "name": "getUniqueFollower",
      "outputs": [
        {
          "internalType": "address[]",
          "name": "follower",
          "type": "address[]"
        }
      ],
      "stateMutability": "view",
      "type": "function",
      "constant": true
    },
    {
      "inputs": [
        {
          "internalType": "uint256",
          "name": "profileID",
          "type": "uint256"
        }
      ],
      "name": "createGiveaway",
      "outputs": [
        {
          "components": [
            {
              "internalType": "address",
              "name": "donor",
              "type": "address"
            },
            {
              "internalType": "uint256",
              "name": "profileID",
              "type": "uint256"
            },
            {
              "internalType": "uint256",
              "name": "amount",
              "type": "uint256"
            },
            {
              "internalType": "address",
              "name": "winner",
              "type": "address"
            }
          ],
          "internalType": "struct GiveawayModule.Giveaway",
          "name": "",
          "type": "tuple"
        }
      ],
      "stateMutability": "payable",
      "type": "function",
      "payable": true
    },
    {
      "inputs": [
        {
          "internalType": "string",
          "name": "handle",
          "type": "string"
        }
      ],
      "name": "getProfileIdByHandle",
      "outputs": [
        {
          "internalType": "uint256",
          "name": "",
          "type": "uint256"
        }
      ],
      "stateMutability": "view",
      "type": "function",
      "constant": true
    },
    {
      "inputs": [
        {
          "internalType": "uint256",
          "name": "profileID",
          "type": "uint256"
        }
      ],
      "name": "getGiveaways",
      "outputs": [
        {
          "components": [
            {
              "internalType": "address",
              "name": "donor",
              "type": "address"
            },
            {
              "internalType": "uint256",
              "name": "profileID",
              "type": "uint256"
            },
            {
              "internalType": "uint256",
              "name": "amount",
              "type": "uint256"
            },
            {
              "internalType": "address",
              "name": "winner",
              "type": "address"
            }
          ],
          "internalType": "struct GiveawayModule.Giveaway[]",
          "name": "",
          "type": "tuple[]"
        }
      ],
      "stateMutability": "view",
      "type": "function",
      "constant": true
    },
    {
      "inputs": [
        {
          "internalType": "uint256",
          "name": "profileID",
          "type": "uint256"
        }
      ],
      "name": "getHandle",
      "outputs": [
        {
          "internalType": "string",
          "name": "",
          "type": "string"
        }
      ],
      "stateMutability": "view",
      "type": "function",
      "constant": true
    }
  ],
  "bytecode": "0x608060405234801561001057600080fd5b50600073d7b3481de00995046c7850bce9a5196b7605c3679050806000806101000a81548173ffffffffffffffffffffffffffffffffffffffff021916908373ffffffffffffffffffffffffffffffffffffffff1602179055505061193a8061007a6000396000f3fe6080604052600436106100555760003560e01c806315a8510c1461005a57806320fa728a146100975780635542b276146100d4578063bf24d36614610111578063ec7efa5214610141578063ec81d1941461017e575b600080fd5b34801561006657600080fd5b50610081600480360381019061007c9190611001565b6101bb565b60405161008e919061111e565b60405180910390f35b3480156100a357600080fd5b506100be60048036038101906100b991906111a5565b6104a6565b6040516100cb9190611201565b60405180910390f35b3480156100e057600080fd5b506100fb60048036038101906100f69190611001565b61054d565b604051610108919061111e565b60405180910390f35b61012b60048036038101906101269190611001565b61092f565b6040516101389190611280565b60405180910390f35b34801561014d57600080fd5b5061016860048036038101906101639190611001565b610b61565b604051610175919061139f565b60405180910390f35b34801561018a57600080fd5b506101a560048036038101906101a09190611001565b610c93565b6040516101b2919061145a565b60405180910390f35b606060008060009054906101000a900473ffffffffffffffffffffffffffffffffffffffff1673ffffffffffffffffffffffffffffffffffffffff1663a9ec6563846040518263ffffffff1660e01b81526004016102199190611201565b602060405180830381865afa158015610236573d6000803e3d6000fd5b505050506040513d601f19601f8201168201806040525081019061025a91906114a8565b9050600073ffffffffffffffffffffffffffffffffffffffff168173ffffffffffffffffffffffffffffffffffffffff16036102e257600067ffffffffffffffff8111156102ab576102aa6114d5565b5b6040519080825280602002602001820160405280156102d95781602001602082028036833780820191505090505b509150506104a1565b600081905060008173ffffffffffffffffffffffffffffffffffffffff166318160ddd6040518163ffffffff1660e01b8152600401602060405180830381865afa158015610334573d6000803e3d6000fd5b505050506040513d601f19601f820116820180604052508101906103589190611519565b905060008167ffffffffffffffff811115610376576103756114d5565b5b6040519080825280602002602001820160405280156103a45781602001602082028036833780820191505090505b50905060005b82811015610498578373ffffffffffffffffffffffffffffffffffffffff16636352211e6001836103db9190611575565b6040518263ffffffff1660e01b81526004016103f79190611201565b602060405180830381865afa158015610414573d6000803e3d6000fd5b505050506040513d601f19601f8201168201806040525081019061043891906114a8565b82828151811061044b5761044a6115cb565b5b602002602001019073ffffffffffffffffffffffffffffffffffffffff16908173ffffffffffffffffffffffffffffffffffffffff16815250508080610490906115fa565b9150506103aa565b50809450505050505b919050565b60008060009054906101000a900473ffffffffffffffffffffffffffffffffffffffff1673ffffffffffffffffffffffffffffffffffffffff166320fa728a84846040518363ffffffff1660e01b815260040161050492919061167e565b602060405180830381865afa158015610521573d6000803e3d6000fd5b505050506040513d601f19601f820116820180604052508101906105459190611519565b905092915050565b606060008060009054906101000a900473ffffffffffffffffffffffffffffffffffffffff1673ffffffffffffffffffffffffffffffffffffffff1663a9ec6563846040518263ffffffff1660e01b81526004016105ab9190611201565b602060405180830381865afa1580156105c8573d6000803e3d6000fd5b505050506040513d601f19601f820116820180604052508101906105ec91906114a8565b905060008173ffffffffffffffffffffffffffffffffffffffff166318160ddd6040518163ffffffff1660e01b8152600401602060405180830381865afa15801561063b573d6000803e3d6000fd5b505050506040513d601f19601f8201168201806040525081019061065f9190611519565b905060008167ffffffffffffffff81111561067d5761067c6114d5565b5b6040519080825280602002602001820160405280156106ab5781602001602082028036833780820191505090505b5090506000805b8381101561083c576000808673ffffffffffffffffffffffffffffffffffffffff16636352211e6001856106e69190611575565b6040518263ffffffff1660e01b81526004016107029190611201565b602060405180830381865afa15801561071f573d6000803e3d6000fd5b505050506040513d601f19601f8201168201806040525081019061074391906114a8565b905060005b838110156107c7578173ffffffffffffffffffffffffffffffffffffffff1686828151811061077a576107796115cb565b5b602002602001015173ffffffffffffffffffffffffffffffffffffffff16036107b4576001925084806107ac906115fa565b9550506107c7565b83806107bf906115fa565b945050610748565b508161082757808585856107db91906116a2565b815181106107ec576107eb6115cb565b5b602002602001019073ffffffffffffffffffffffffffffffffffffffff16908173ffffffffffffffffffffffffffffffffffffffff16815250505b50508080610834906115fa565b9150506106b2565b506000818461084b91906116a2565b905060008167ffffffffffffffff811115610869576108686114d5565b5b6040519080825280602002602001820160405280156108975781602001602082028036833780820191505090505b50905060005b82811015610920578481815181106108b8576108b76115cb565b5b60200260200101518282815181106108d3576108d26115cb565b5b602002602001019073ffffffffffffffffffffffffffffffffffffffff16908173ffffffffffffffffffffffffffffffffffffffff16815250508080610918906115fa565b91505061089d565b50809650505050505050919050565b610937610f63565b600061094283610d3b565b905060003390506000349050600060405180608001604052808473ffffffffffffffffffffffffffffffffffffffff1681526020018781526020018381526020018573ffffffffffffffffffffffffffffffffffffffff1681525090506000808573ffffffffffffffffffffffffffffffffffffffff16846040516109c690611707565b60006040518083038185875af1925050503d8060008114610a03576040519150601f19603f3d011682016040523d82523d6000602084013e610a08565b606091505b50915091508573ffffffffffffffffffffffffffffffffffffffff168573ffffffffffffffffffffffffffffffffffffffff167f97bda46e04e64f71ccb885f6f7505123afa924649d2c74da63444c39589ad3b586604051610a6a9190611201565b60405180910390a36001600089815260200190815260200160002083908060018154018082558091505060019003906000526020600020906004020160009091909190915060008201518160000160006101000a81548173ffffffffffffffffffffffffffffffffffffffff021916908373ffffffffffffffffffffffffffffffffffffffff160217905550602082015181600101556040820151816002015560608201518160030160006101000a81548173ffffffffffffffffffffffffffffffffffffffff021916908373ffffffffffffffffffffffffffffffffffffffff1602179055505050829650505050505050919050565b606060016000838152602001908152602001600020805480602002602001604051908101604052809291908181526020016000905b82821015610c8857838290600052602060002090600402016040518060800160405290816000820160009054906101000a900473ffffffffffffffffffffffffffffffffffffffff1673ffffffffffffffffffffffffffffffffffffffff1673ffffffffffffffffffffffffffffffffffffffff16815260200160018201548152602001600282015481526020016003820160009054906101000a900473ffffffffffffffffffffffffffffffffffffffff1673ffffffffffffffffffffffffffffffffffffffff1673ffffffffffffffffffffffffffffffffffffffff168152505081526020019060010190610b96565b505050509050919050565b606060008054906101000a900473ffffffffffffffffffffffffffffffffffffffff1673ffffffffffffffffffffffffffffffffffffffff1663ec81d194836040518263ffffffff1660e01b8152600401610cee9190611201565b600060405180830381865afa158015610d0b573d6000803e3d6000fd5b505050506040513d6000823e3d601f19601f82011682018060405250810190610d34919061180e565b9050919050565b60008060008054906101000a900473ffffffffffffffffffffffffffffffffffffffff1673ffffffffffffffffffffffffffffffffffffffff1663a9ec6563846040518263ffffffff1660e01b8152600401610d979190611201565b602060405180830381865afa158015610db4573d6000803e3d6000fd5b505050506040513d601f19601f82011682018060405250810190610dd891906114a8565b9050600073ffffffffffffffffffffffffffffffffffffffff168173ffffffffffffffffffffffffffffffffffffffff1603610e18576000915050610f5e565b600081905060008173ffffffffffffffffffffffffffffffffffffffff166318160ddd6040518163ffffffff1660e01b8152600401602060405180830381865afa158015610e6a573d6000803e3d6000fd5b505050506040513d601f19601f82011682018060405250810190610e8e9190611519565b905060004442604051602001610ea5929190611878565b6040516020818303038152906040528051906020012060001c905060008282610ece91906118d3565b6001610eda9190611575565b90508373ffffffffffffffffffffffffffffffffffffffff16636352211e826040518263ffffffff1660e01b8152600401610f159190611201565b602060405180830381865afa158015610f32573d6000803e3d6000fd5b505050506040513d601f19601f82011682018060405250810190610f5691906114a8565b955050505050505b919050565b6040518060800160405280600073ffffffffffffffffffffffffffffffffffffffff1681526020016000815260200160008152602001600073ffffffffffffffffffffffffffffffffffffffff1681525090565b6000604051905090565b600080fd5b600080fd5b6000819050919050565b610fde81610fcb565b8114610fe957600080fd5b50565b600081359050610ffb81610fd5565b92915050565b60006020828403121561101757611016610fc1565b5b600061102584828501610fec565b91505092915050565b600081519050919050565b600082825260208201905092915050565b6000819050602082019050919050565b600073ffffffffffffffffffffffffffffffffffffffff82169050919050565b60006110858261105a565b9050919050565b6110958161107a565b82525050565b60006110a7838361108c565b60208301905092915050565b6000602082019050919050565b60006110cb8261102e565b6110d58185611039565b93506110e08361104a565b8060005b838110156111115781516110f8888261109b565b9750611103836110b3565b9250506001810190506110e4565b5085935050505092915050565b6000602082019050818103600083015261113881846110c0565b905092915050565b600080fd5b600080fd5b600080fd5b60008083601f84011261116557611164611140565b5b8235905067ffffffffffffffff81111561118257611181611145565b5b60208301915083600182028301111561119e5761119d61114a565b5b9250929050565b600080602083850312156111bc576111bb610fc1565b5b600083013567ffffffffffffffff8111156111da576111d9610fc6565b5b6111e68582860161114f565b92509250509250929050565b6111fb81610fcb565b82525050565b600060208201905061121660008301846111f2565b92915050565b61122581610fcb565b82525050565b608082016000820151611241600085018261108c565b506020820151611254602085018261121c565b506040820151611267604085018261121c565b50606082015161127a606085018261108c565b50505050565b6000608082019050611295600083018461122b565b92915050565b600081519050919050565b600082825260208201905092915050565b6000819050602082019050919050565b6080820160008201516112dd600085018261108c565b5060208201516112f0602085018261121c565b506040820151611303604085018261121c565b506060820151611316606085018261108c565b50505050565b600061132883836112c7565b60808301905092915050565b6000602082019050919050565b600061134c8261129b565b61135681856112a6565b9350611361836112b7565b8060005b83811015611392578151611379888261131c565b975061138483611334565b925050600181019050611365565b5085935050505092915050565b600060208201905081810360008301526113b98184611341565b905092915050565b600081519050919050565b600082825260208201905092915050565b60005b838110156113fb5780820151818401526020810190506113e0565b8381111561140a576000848401525b50505050565b6000601f19601f8301169050919050565b600061142c826113c1565b61143681856113cc565b93506114468185602086016113dd565b61144f81611410565b840191505092915050565b600060208201905081810360008301526114748184611421565b905092915050565b6114858161107a565b811461149057600080fd5b50565b6000815190506114a28161147c565b92915050565b6000602082840312156114be576114bd610fc1565b5b60006114cc84828501611493565b91505092915050565b7f4e487b7100000000000000000000000000000000000000000000000000000000600052604160045260246000fd5b60008151905061151381610fd5565b92915050565b60006020828403121561152f5761152e610fc1565b5b600061153d84828501611504565b91505092915050565b7f4e487b7100000000000000000000000000000000000000000000000000000000600052601160045260246000fd5b600061158082610fcb565b915061158b83610fcb565b9250827fffffffffffffffffffffffffffffffffffffffffffffffffffffffffffffffff038211156115c0576115bf611546565b5b828201905092915050565b7f4e487b7100000000000000000000000000000000000000000000000000000000600052603260045260246000fd5b600061160582610fcb565b91507fffffffffffffffffffffffffffffffffffffffffffffffffffffffffffffffff820361163757611636611546565b5b600182019050919050565b82818337600083830152505050565b600061165d83856113cc565b935061166a838584611642565b61167383611410565b840190509392505050565b60006020820190508181036000830152611699818486611651565b90509392505050565b60006116ad82610fcb565b91506116b883610fcb565b9250828210156116cb576116ca611546565b5b828203905092915050565b600081905092915050565b50565b60006116f16000836116d6565b91506116fc826116e1565b600082019050919050565b6000611712826116e4565b9150819050919050565b600080fd5b61172a82611410565b810181811067ffffffffffffffff82111715611749576117486114d5565b5b80604052505050565b600061175c610fb7565b90506117688282611721565b919050565b600067ffffffffffffffff821115611788576117876114d5565b5b61179182611410565b9050602081019050919050565b60006117b16117ac8461176d565b611752565b9050828152602081018484840111156117cd576117cc61171c565b5b6117d88482856113dd565b509392505050565b600082601f8301126117f5576117f4611140565b5b815161180584826020860161179e565b91505092915050565b60006020828403121561182457611823610fc1565b5b600082015167ffffffffffffffff81111561184257611841610fc6565b5b61184e848285016117e0565b91505092915050565b6000819050919050565b61187261186d82610fcb565b611857565b82525050565b60006118848285611861565b6020820191506118948284611861565b6020820191508190509392505050565b7f4e487b7100000000000000000000000000000000000000000000000000000000600052601260045260246000fd5b60006118de82610fcb565b91506118e983610fcb565b9250826118f9576118f86118a4565b5b82820690509291505056fea26469706673582212209634b62a26736ee9bb42fbb9a78ef23c263729b0837dbc48765924ac6dcb80c164736f6c634300080d0033",
  "immutableReferences": {},
  "source": "// SPDX-License-Identifier: MIT\npragma solidity ^0.8.0;\npragma experimental ABIEncoderV2;\n\n//import \"@chainlink/contracts/src/v0.6/ChainlinkClient.sol\";\nimport \"hardhat/console.sol\";\nimport '@openzeppelin/contracts/token/ERC721/extensions/IERC721Enumerable.sol';\n\ncontract LensHub {\n    function getFollowNFT(uint256 profileId) external view returns (address) {return 0x0000000000000000000000000000000000000000;}\n\n    function defaultProfile(address wallet) external view returns (uint256) {return 0;}\n\n    function getProfileIdByHandle(string calldata handle) external view returns (uint256) {return 0;}\n\n    function getHandle(uint256 profileId) external view returns (string memory) {return \"\";}\n}\n\ncontract GiveawayModule {\n\n    event SendPrize(address indexed _from, address indexed _to, uint256 _value);\n\n    LensHub _lensHub;\n    mapping(uint256 => Giveaway[]) _giveaways;\n\n    struct Giveaway {\n        address donor;\n        uint256 profileID;\n        uint256 amount;\n        address winner;\n    }\n\n    constructor() public {\n        address watch_addr = 0xd7B3481De00995046C7850bCe9a5196B7605c367;\n        // lens hub proxy on mumbai testnet\n        _lensHub = LensHub(watch_addr);\n    }\n\n    function getFollower(uint256 profileID) public view returns (address[] memory follower){\n        address followNFTAddress = _lensHub.getFollowNFT(profileID);\n        if (followNFTAddress == address(0)) {\n            return new address[](0);\n        }\n        IERC721Enumerable followNFT = IERC721Enumerable(followNFTAddress);\n        uint256 totalSupply = followNFT.totalSupply();\n        address[] memory follower = new address[](totalSupply);\n        for (uint256 i = 0; i < totalSupply; i++) {\n            follower[i] = followNFT.ownerOf(i + 1);\n        }\n        return follower;\n    }\n\n    function getUniqueFollower(uint256 profileID) public view returns (address[] memory follower){\n        IERC721Enumerable followNFT = IERC721Enumerable(_lensHub.getFollowNFT(profileID));\n        uint256 totalSupply = followNFT.totalSupply();\n        address[] memory follower = new address[](totalSupply);\n        uint256 duplicateCounter = 0;\n        for (uint256 i = 0; i < totalSupply; i++) {\n            bool isDuplicate = false;\n            address followerAddress = followNFT.ownerOf(i + 1);\n            for (uint256 j = 0; j < i; i++) {\n                if (follower[j] == followerAddress) {\n                    isDuplicate = true;\n                    duplicateCounter++;\n                    break;\n                }\n            }\n            if (!isDuplicate) {\n                follower[i - duplicateCounter] = followerAddress;\n            }\n        }\n        uint256 nUniqueFollower = totalSupply - duplicateCounter;\n        address[] memory uniqueFollower = new address[](nUniqueFollower);\n        for (uint256 i = 0; i < nUniqueFollower; i++) {\n            uniqueFollower[i] = follower[i];\n        }\n        return uniqueFollower;\n    }\n\n    function createGiveaway(uint256 profileID) public payable returns (Giveaway memory) {\n        address winner = _getRandomFollowerAddress(profileID);\n        address donor = msg.sender;\n        uint256 prize = msg.value;\n        Giveaway memory giveaway = Giveaway(donor, profileID, prize, winner);\n        // transfer amount to winner\n        (bool sent, bytes memory data) = payable(address(winner)).call{value : prize}(\"\");\n        emit SendPrize(donor, winner, prize);\n        _giveaways[profileID].push(giveaway);\n        return giveaway;\n    }\n\n    function getProfileIdByHandle(string calldata handle) public view returns (uint256){\n        return _lensHub.getProfileIdByHandle(handle);\n    }\n\n    function getGiveaways(uint256 profileID) public view returns (Giveaway[] memory) {\n        return _giveaways[profileID];\n    }\n\n    function _getRandomFollowerAddress(uint256 profileID) private view returns (address) {\n        address followNFTAddress = _lensHub.getFollowNFT(profileID);\n        if (followNFTAddress == address(0)) {\n            return address(0);\n        }\n        IERC721Enumerable followNFT = IERC721Enumerable(followNFTAddress);\n        uint256 totalSupply = followNFT.totalSupply();\n        uint256 randomNumber = uint256(keccak256(abi.encodePacked(block.difficulty, block.timestamp)));\n        uint256 winnerIndex = 1 + randomNumber % totalSupply;\n        return followNFT.ownerOf(winnerIndex);\n    }\n\n    function getHandle(uint256 profileID) public view returns (string memory) {\n        return _lensHub.getHandle(profileID);\n    }\n\n}\n",
  "sourcePath": "/Users/korbinianabstreiter/crytoprojects/lens-giveaway/contracts/GiveawayModule.sol",
  "compiler": {
    "name": "solc",
    "version": "0.8.13+commit.abaa5c0e.Emscripten.clang"
  },
  "schemaVersion": "3.4.5",
  "updatedAt": "2022-03-21T18:53:16.539Z",
  "networkType": "ethereum",
  "devdoc": {
    "kind": "dev",
    "methods": {},
    "version": 1
  },
  "userdoc": {
    "kind": "user",
    "methods": {},
    "version": 1
  }
}