{
  "contractName": "GiveawayModule",
  "abi": [
    {
      "inputs": [],
      "stateMutability": "nonpayable",
      "type": "constructor"
    },
    {
      "anonymous": false,
      "inputs": [
        {
          "indexed": true,
          "internalType": "address",
          "name": "_from",
          "type": "address"
        },
        {
          "indexed": true,
          "internalType": "address",
          "name": "_to",
          "type": "address"
        },
        {
          "indexed": false,
          "internalType": "uint256",
          "name": "_value",
          "type": "uint256"
        }
      ],
      "name": "SendPrize",
      "type": "event"
    },
    {
      "anonymous": false,
      "inputs": [
        {
          "indexed": false,
          "internalType": "bytes32",
          "name": "requestId",
          "type": "bytes32"
        },
        {
          "indexed": false,
          "internalType": "uint256",
          "name": "randomness",
          "type": "uint256"
        }
      ],
      "name": "TestDone",
      "type": "event"
    },
    {
      "inputs": [],
      "name": "randomResult",
      "outputs": [
        {
          "internalType": "uint256",
          "name": "",
          "type": "uint256"
        }
      ],
      "stateMutability": "view",
      "type": "function",
      "constant": true
    },
    {
      "inputs": [
        {
          "internalType": "bytes32",
          "name": "requestId",
          "type": "bytes32"
        },
        {
          "internalType": "uint256",
          "name": "randomness",
          "type": "uint256"
        }
      ],
      "name": "rawFulfillRandomness",
      "outputs": [],
      "stateMutability": "nonpayable",
      "type": "function"
    },
    {
      "inputs": [],
      "name": "getRandomNumber",
      "outputs": [
        {
          "internalType": "bytes32",
          "name": "requestId",
          "type": "bytes32"
        }
      ],
      "stateMutability": "nonpayable",
      "type": "function"
    },
    {
      "inputs": [
        {
          "internalType": "uint256",
          "name": "profileID",
          "type": "uint256"
        }
      ],
      "name": "getFollower",
      "outputs": [
        {
          "internalType": "address[]",
          "name": "follower",
          "type": "address[]"
        }
      ],
      "stateMutability": "view",
      "type": "function",
      "constant": true
    },
    {
      "inputs": [
        {
          "internalType": "uint256",
          "name": "profileID",
          "type": "uint256"
        }
      ],
      "name": "getUniqueFollower",
      "outputs": [
        {
          "internalType": "address[]",
          "name": "follower",
          "type": "address[]"
        }
      ],
      "stateMutability": "view",
      "type": "function",
      "constant": true
    },
    {
      "inputs": [
        {
          "internalType": "uint256",
          "name": "profileID",
          "type": "uint256"
        }
      ],
      "name": "createGiveaway",
      "outputs": [
        {
          "components": [
            {
              "internalType": "address",
              "name": "donor",
              "type": "address"
            },
            {
              "internalType": "uint256",
              "name": "profileID",
              "type": "uint256"
            },
            {
              "internalType": "uint256",
              "name": "amount",
              "type": "uint256"
            },
            {
              "internalType": "address",
              "name": "winner",
              "type": "address"
            }
          ],
          "internalType": "struct GiveawayModule.Giveaway",
          "name": "",
          "type": "tuple"
        }
      ],
      "stateMutability": "payable",
      "type": "function",
      "payable": true
    },
    {
      "inputs": [
        {
          "internalType": "string",
          "name": "handle",
          "type": "string"
        }
      ],
      "name": "getProfileIdByHandle",
      "outputs": [
        {
          "internalType": "uint256",
          "name": "",
          "type": "uint256"
        }
      ],
      "stateMutability": "view",
      "type": "function",
      "constant": true
    },
    {
      "inputs": [
        {
          "internalType": "uint256",
          "name": "profileID",
          "type": "uint256"
        }
      ],
      "name": "getGiveaways",
      "outputs": [
        {
          "components": [
            {
              "internalType": "address",
              "name": "donor",
              "type": "address"
            },
            {
              "internalType": "uint256",
              "name": "profileID",
              "type": "uint256"
            },
            {
              "internalType": "uint256",
              "name": "amount",
              "type": "uint256"
            },
            {
              "internalType": "address",
              "name": "winner",
              "type": "address"
            }
          ],
          "internalType": "struct GiveawayModule.Giveaway[]",
          "name": "",
          "type": "tuple[]"
        }
      ],
      "stateMutability": "view",
      "type": "function",
      "constant": true
    },
    {
      "inputs": [
        {
          "internalType": "uint256",
          "name": "profileID",
          "type": "uint256"
        }
      ],
      "name": "getHandle",
      "outputs": [
        {
          "internalType": "string",
          "name": "",
          "type": "string"
        }
      ],
      "stateMutability": "view",
      "type": "function",
      "constant": true
    }
  ],
  "bytecode": "0x60c060405234801561001057600080fd5b50738c7382f9d8f56b33781fe506e897a4f1e2d1725573326c977e6efc84e512bb9c30f76e30c160ed06fb8173ffffffffffffffffffffffffffffffffffffffff1660a08173ffffffffffffffffffffffffffffffffffffffff16815250508073ffffffffffffffffffffffffffffffffffffffff1660808173ffffffffffffffffffffffffffffffffffffffff16815250505050600073d7b3481de00995046c7850bce9a5196b7605c367905080600160006101000a81548173ffffffffffffffffffffffffffffffffffffffff021916908373ffffffffffffffffffffffffffffffffffffffff1602179055507f6e75b569a01ef56d18cab6a8e71e6600d6ce853834d4a5748b720d06f878b3a460001b60038190555066038d7ea4c680006004819055505060805160a05161210361016b600039600081816109ea0152611232015260008181610cbd01526111f601526121036000f3fe6080604052600436106100865760003560e01c806394985ddd1161005957806394985ddd1461016d578063bf24d36614610196578063dbdff2c1146101c6578063ec7efa52146101f1578063ec81d1941461022e57610086565b806315a8510c1461008b57806320fa728a146100c857806342619f66146101055780635542b27614610130575b600080fd5b34801561009757600080fd5b506100b260048036038101906100ad919061144f565b61026b565b6040516100bf919061156c565b60405180910390f35b3480156100d457600080fd5b506100ef60048036038101906100ea91906115f3565b610557565b6040516100fc919061164f565b60405180910390f35b34801561011157600080fd5b5061011a6105ff565b604051610127919061164f565b60405180910390f35b34801561013c57600080fd5b506101576004803603810190610152919061144f565b610605565b604051610164919061156c565b60405180910390f35b34801561017957600080fd5b50610194600480360381019061018f91906116a0565b6109e8565b005b6101b060048036038101906101ab919061144f565b610a84565b6040516101bd9190611744565b60405180910390f35b3480156101d257600080fd5b506101db610cb6565b6040516101e8919061176e565b60405180910390f35b3480156101fd57600080fd5b506102186004803603810190610213919061144f565b610da8565b604051610225919061188d565b60405180910390f35b34801561023a57600080fd5b506102556004803603810190610250919061144f565b610eda565b6040516102629190611948565b60405180910390f35b60606000600160009054906101000a900473ffffffffffffffffffffffffffffffffffffffff1673ffffffffffffffffffffffffffffffffffffffff1663a9ec6563846040518263ffffffff1660e01b81526004016102ca919061164f565b602060405180830381865afa1580156102e7573d6000803e3d6000fd5b505050506040513d601f19601f8201168201806040525081019061030b9190611996565b9050600073ffffffffffffffffffffffffffffffffffffffff168173ffffffffffffffffffffffffffffffffffffffff160361039357600067ffffffffffffffff81111561035c5761035b6119c3565b5b60405190808252806020026020018201604052801561038a5781602001602082028036833780820191505090505b50915050610552565b600081905060008173ffffffffffffffffffffffffffffffffffffffff166318160ddd6040518163ffffffff1660e01b8152600401602060405180830381865afa1580156103e5573d6000803e3d6000fd5b505050506040513d601f19601f820116820180604052508101906104099190611a07565b905060008167ffffffffffffffff811115610427576104266119c3565b5b6040519080825280602002602001820160405280156104555781602001602082028036833780820191505090505b50905060005b82811015610549578373ffffffffffffffffffffffffffffffffffffffff16636352211e60018361048c9190611a63565b6040518263ffffffff1660e01b81526004016104a8919061164f565b602060405180830381865afa1580156104c5573d6000803e3d6000fd5b505050506040513d601f19601f820116820180604052508101906104e99190611996565b8282815181106104fc576104fb611ab9565b5b602002602001019073ffffffffffffffffffffffffffffffffffffffff16908173ffffffffffffffffffffffffffffffffffffffff1681525050808061054190611ae8565b91505061045b565b50809450505050505b919050565b6000600160009054906101000a900473ffffffffffffffffffffffffffffffffffffffff1673ffffffffffffffffffffffffffffffffffffffff166320fa728a84846040518363ffffffff1660e01b81526004016105b6929190611b6c565b602060405180830381865afa1580156105d3573d6000803e3d6000fd5b505050506040513d601f19601f820116820180604052508101906105f79190611a07565b905092915050565b60055481565b60606000600160009054906101000a900473ffffffffffffffffffffffffffffffffffffffff1673ffffffffffffffffffffffffffffffffffffffff1663a9ec6563846040518263ffffffff1660e01b8152600401610664919061164f565b602060405180830381865afa158015610681573d6000803e3d6000fd5b505050506040513d601f19601f820116820180604052508101906106a59190611996565b905060008173ffffffffffffffffffffffffffffffffffffffff166318160ddd6040518163ffffffff1660e01b8152600401602060405180830381865afa1580156106f4573d6000803e3d6000fd5b505050506040513d601f19601f820116820180604052508101906107189190611a07565b905060008167ffffffffffffffff811115610736576107356119c3565b5b6040519080825280602002602001820160405280156107645781602001602082028036833780820191505090505b5090506000805b838110156108f5576000808673ffffffffffffffffffffffffffffffffffffffff16636352211e60018561079f9190611a63565b6040518263ffffffff1660e01b81526004016107bb919061164f565b602060405180830381865afa1580156107d8573d6000803e3d6000fd5b505050506040513d601f19601f820116820180604052508101906107fc9190611996565b905060005b83811015610880578173ffffffffffffffffffffffffffffffffffffffff1686828151811061083357610832611ab9565b5b602002602001015173ffffffffffffffffffffffffffffffffffffffff160361086d5760019250848061086590611ae8565b955050610880565b838061087890611ae8565b945050610801565b50816108e057808585856108949190611b90565b815181106108a5576108a4611ab9565b5b602002602001019073ffffffffffffffffffffffffffffffffffffffff16908173ffffffffffffffffffffffffffffffffffffffff16815250505b505080806108ed90611ae8565b91505061076b565b50600081846109049190611b90565b905060008167ffffffffffffffff811115610922576109216119c3565b5b6040519080825280602002602001820160405280156109505781602001602082028036833780820191505090505b50905060005b828110156109d95784818151811061097157610970611ab9565b5b602002602001015182828151811061098c5761098b611ab9565b5b602002602001019073ffffffffffffffffffffffffffffffffffffffff16908173ffffffffffffffffffffffffffffffffffffffff168152505080806109d190611ae8565b915050610956565b50809650505050505050919050565b7f000000000000000000000000000000000000000000000000000000000000000073ffffffffffffffffffffffffffffffffffffffff163373ffffffffffffffffffffffffffffffffffffffff1614610a76576040517f08c379a0000000000000000000000000000000000000000000000000000000008152600401610a6d90611c10565b60405180910390fd5b610a808282610f84565b5050565b610a8c6113b1565b6000610a9783610fc8565b905060003390506000349050600060405180608001604052808473ffffffffffffffffffffffffffffffffffffffff1681526020018781526020018381526020018573ffffffffffffffffffffffffffffffffffffffff1681525090506000808573ffffffffffffffffffffffffffffffffffffffff1684604051610b1b90611c61565b60006040518083038185875af1925050503d8060008114610b58576040519150601f19603f3d011682016040523d82523d6000602084013e610b5d565b606091505b50915091508573ffffffffffffffffffffffffffffffffffffffff168573ffffffffffffffffffffffffffffffffffffffff167f97bda46e04e64f71ccb885f6f7505123afa924649d2c74da63444c39589ad3b586604051610bbf919061164f565b60405180910390a36002600089815260200190815260200160002083908060018154018082558091505060019003906000526020600020906004020160009091909190915060008201518160000160006101000a81548173ffffffffffffffffffffffffffffffffffffffff021916908373ffffffffffffffffffffffffffffffffffffffff160217905550602082015181600101556040820151816002015560608201518160030160006101000a81548173ffffffffffffffffffffffffffffffffffffffff021916908373ffffffffffffffffffffffffffffffffffffffff1602179055505050829650505050505050919050565b60006004547f000000000000000000000000000000000000000000000000000000000000000073ffffffffffffffffffffffffffffffffffffffff166370a08231306040518263ffffffff1660e01b8152600401610d149190611c85565b602060405180830381865afa158015610d31573d6000803e3d6000fd5b505050506040513d601f19601f82011682018060405250810190610d559190611a07565b11610d95576040517f08c379a0000000000000000000000000000000000000000000000000000000008152600401610d8c90611d12565b60405180910390fd5b610da36003546004546111f2565b905090565b606060026000838152602001908152602001600020805480602002602001604051908101604052809291908181526020016000905b82821015610ecf57838290600052602060002090600402016040518060800160405290816000820160009054906101000a900473ffffffffffffffffffffffffffffffffffffffff1673ffffffffffffffffffffffffffffffffffffffff1673ffffffffffffffffffffffffffffffffffffffff16815260200160018201548152602001600282015481526020016003820160009054906101000a900473ffffffffffffffffffffffffffffffffffffffff1673ffffffffffffffffffffffffffffffffffffffff1673ffffffffffffffffffffffffffffffffffffffff168152505081526020019060010190610ddd565b505050509050919050565b6060600160009054906101000a900473ffffffffffffffffffffffffffffffffffffffff1673ffffffffffffffffffffffffffffffffffffffff1663ec81d194836040518263ffffffff1660e01b8152600401610f37919061164f565b600060405180830381865afa158015610f54573d6000803e3d6000fd5b505050506040513d6000823e3d601f19601f82011682018060405250810190610f7d9190611e24565b9050919050565b806005819055507f411ab50ace9885500c49a7acb36add47f2b02b8b604dc18059cfe1fdd4d21fe88282604051610fbc929190611e6d565b60405180910390a15050565b600080600160009054906101000a900473ffffffffffffffffffffffffffffffffffffffff1673ffffffffffffffffffffffffffffffffffffffff1663a9ec6563846040518263ffffffff1660e01b8152600401611026919061164f565b602060405180830381865afa158015611043573d6000803e3d6000fd5b505050506040513d601f19601f820116820180604052508101906110679190611996565b9050600073ffffffffffffffffffffffffffffffffffffffff168173ffffffffffffffffffffffffffffffffffffffff16036110a75760009150506111ed565b600081905060008173ffffffffffffffffffffffffffffffffffffffff166318160ddd6040518163ffffffff1660e01b8152600401602060405180830381865afa1580156110f9573d6000803e3d6000fd5b505050506040513d601f19601f8201168201806040525081019061111d9190611a07565b905060004442604051602001611134929190611eb7565b6040516020818303038152906040528051906020012060001c90506000828261115d9190611f12565b60016111699190611a63565b90508373ffffffffffffffffffffffffffffffffffffffff16636352211e826040518263ffffffff1660e01b81526004016111a4919061164f565b602060405180830381865afa1580156111c1573d6000803e3d6000fd5b505050506040513d601f19601f820116820180604052508101906111e59190611996565b955050505050505b919050565b60007f000000000000000000000000000000000000000000000000000000000000000073ffffffffffffffffffffffffffffffffffffffff16634000aea07f000000000000000000000000000000000000000000000000000000000000000084866000604051602001611266929190611e6d565b6040516020818303038152906040526040518463ffffffff1660e01b815260040161129393929190611f98565b6020604051808303816000875af11580156112b2573d6000803e3d6000fd5b505050506040513d601f19601f820116820180604052508101906112d6919061200e565b5060006112f88460003060008089815260200190815260200160002054611342565b90506001600080868152602001908152602001600020546113199190611a63565b60008086815260200190815260200160002081905550611339848261137e565b91505092915050565b60008484848460405160200161135b949392919061203b565b6040516020818303038152906040528051906020012060001c9050949350505050565b600082826040516020016113939291906120a1565b60405160208183030381529060405280519060200120905092915050565b6040518060800160405280600073ffffffffffffffffffffffffffffffffffffffff1681526020016000815260200160008152602001600073ffffffffffffffffffffffffffffffffffffffff1681525090565b6000604051905090565b600080fd5b600080fd5b6000819050919050565b61142c81611419565b811461143757600080fd5b50565b60008135905061144981611423565b92915050565b6000602082840312156114655761146461140f565b5b60006114738482850161143a565b91505092915050565b600081519050919050565b600082825260208201905092915050565b6000819050602082019050919050565b600073ffffffffffffffffffffffffffffffffffffffff82169050919050565b60006114d3826114a8565b9050919050565b6114e3816114c8565b82525050565b60006114f583836114da565b60208301905092915050565b6000602082019050919050565b60006115198261147c565b6115238185611487565b935061152e83611498565b8060005b8381101561155f57815161154688826114e9565b975061155183611501565b925050600181019050611532565b5085935050505092915050565b60006020820190508181036000830152611586818461150e565b905092915050565b600080fd5b600080fd5b600080fd5b60008083601f8401126115b3576115b261158e565b5b8235905067ffffffffffffffff8111156115d0576115cf611593565b5b6020830191508360018202830111156115ec576115eb611598565b5b9250929050565b6000806020838503121561160a5761160961140f565b5b600083013567ffffffffffffffff81111561162857611627611414565b5b6116348582860161159d565b92509250509250929050565b61164981611419565b82525050565b60006020820190506116646000830184611640565b92915050565b6000819050919050565b61167d8161166a565b811461168857600080fd5b50565b60008135905061169a81611674565b92915050565b600080604083850312156116b7576116b661140f565b5b60006116c58582860161168b565b92505060206116d68582860161143a565b9150509250929050565b6116e981611419565b82525050565b60808201600082015161170560008501826114da565b50602082015161171860208501826116e0565b50604082015161172b60408501826116e0565b50606082015161173e60608501826114da565b50505050565b600060808201905061175960008301846116ef565b92915050565b6117688161166a565b82525050565b6000602082019050611783600083018461175f565b92915050565b600081519050919050565b600082825260208201905092915050565b6000819050602082019050919050565b6080820160008201516117cb60008501826114da565b5060208201516117de60208501826116e0565b5060408201516117f160408501826116e0565b50606082015161180460608501826114da565b50505050565b600061181683836117b5565b60808301905092915050565b6000602082019050919050565b600061183a82611789565b6118448185611794565b935061184f836117a5565b8060005b83811015611880578151611867888261180a565b975061187283611822565b925050600181019050611853565b5085935050505092915050565b600060208201905081810360008301526118a7818461182f565b905092915050565b600081519050919050565b600082825260208201905092915050565b60005b838110156118e95780820151818401526020810190506118ce565b838111156118f8576000848401525b50505050565b6000601f19601f8301169050919050565b600061191a826118af565b61192481856118ba565b93506119348185602086016118cb565b61193d816118fe565b840191505092915050565b60006020820190508181036000830152611962818461190f565b905092915050565b611973816114c8565b811461197e57600080fd5b50565b6000815190506119908161196a565b92915050565b6000602082840312156119ac576119ab61140f565b5b60006119ba84828501611981565b91505092915050565b7f4e487b7100000000000000000000000000000000000000000000000000000000600052604160045260246000fd5b600081519050611a0181611423565b92915050565b600060208284031215611a1d57611a1c61140f565b5b6000611a2b848285016119f2565b91505092915050565b7f4e487b7100000000000000000000000000000000000000000000000000000000600052601160045260246000fd5b6000611a6e82611419565b9150611a7983611419565b9250827fffffffffffffffffffffffffffffffffffffffffffffffffffffffffffffffff03821115611aae57611aad611a34565b5b828201905092915050565b7f4e487b7100000000000000000000000000000000000000000000000000000000600052603260045260246000fd5b6000611af382611419565b91507fffffffffffffffffffffffffffffffffffffffffffffffffffffffffffffffff8203611b2557611b24611a34565b5b600182019050919050565b82818337600083830152505050565b6000611b4b83856118ba565b9350611b58838584611b30565b611b61836118fe565b840190509392505050565b60006020820190508181036000830152611b87818486611b3f565b90509392505050565b6000611b9b82611419565b9150611ba683611419565b925082821015611bb957611bb8611a34565b5b828203905092915050565b7f4f6e6c7920565246436f6f7264696e61746f722063616e2066756c66696c6c00600082015250565b6000611bfa601f836118ba565b9150611c0582611bc4565b602082019050919050565b60006020820190508181036000830152611c2981611bed565b9050919050565b600081905092915050565b50565b6000611c4b600083611c30565b9150611c5682611c3b565b600082019050919050565b6000611c6c82611c3e565b9150819050919050565b611c7f816114c8565b82525050565b6000602082019050611c9a6000830184611c76565b92915050565b7f4e6f7420656e6f756768204c494e4b202d2066696c6c20636f6e74726163742060008201527f7769746820666175636574000000000000000000000000000000000000000000602082015250565b6000611cfc602b836118ba565b9150611d0782611ca0565b604082019050919050565b60006020820190508181036000830152611d2b81611cef565b9050919050565b600080fd5b611d40826118fe565b810181811067ffffffffffffffff82111715611d5f57611d5e6119c3565b5b80604052505050565b6000611d72611405565b9050611d7e8282611d37565b919050565b600067ffffffffffffffff821115611d9e57611d9d6119c3565b5b611da7826118fe565b9050602081019050919050565b6000611dc7611dc284611d83565b611d68565b905082815260208101848484011115611de357611de2611d32565b5b611dee8482856118cb565b509392505050565b600082601f830112611e0b57611e0a61158e565b5b8151611e1b848260208601611db4565b91505092915050565b600060208284031215611e3a57611e3961140f565b5b600082015167ffffffffffffffff811115611e5857611e57611414565b5b611e6484828501611df6565b91505092915050565b6000604082019050611e82600083018561175f565b611e8f6020830184611640565b9392505050565b6000819050919050565b611eb1611eac82611419565b611e96565b82525050565b6000611ec38285611ea0565b602082019150611ed38284611ea0565b6020820191508190509392505050565b7f4e487b7100000000000000000000000000000000000000000000000000000000600052601260045260246000fd5b6000611f1d82611419565b9150611f2883611419565b925082611f3857611f37611ee3565b5b828206905092915050565b600081519050919050565b600082825260208201905092915050565b6000611f6a82611f43565b611f748185611f4e565b9350611f848185602086016118cb565b611f8d816118fe565b840191505092915050565b6000606082019050611fad6000830186611c76565b611fba6020830185611640565b8181036040830152611fcc8184611f5f565b9050949350505050565b60008115159050919050565b611feb81611fd6565b8114611ff657600080fd5b50565b60008151905061200881611fe2565b92915050565b6000602082840312156120245761202361140f565b5b600061203284828501611ff9565b91505092915050565b6000608082019050612050600083018761175f565b61205d6020830186611640565b61206a6040830185611c76565b6120776060830184611640565b95945050505050565b6000819050919050565b61209b6120968261166a565b612080565b82525050565b60006120ad828561208a565b6020820191506120bd8284611ea0565b602082019150819050939250505056fea264697066735822122052636b0782e366e0f9649073d3f8f484fbbc0a56aaff8d870f67ce58efd4ae7064736f6c634300080d0033",
  "immutableReferences": {
    "73": [
      {
        "length": 32,
        "start": 3261
      },
      {
        "length": 32,
        "start": 4598
      }
    ],
    "75": [
      {
        "length": 32,
        "start": 2538
      },
      {
        "length": 32,
        "start": 4658
      }
    ]
  },
  "source": "// SPDX-License-Identifier: MIT\npragma solidity ^0.8.0;\npragma experimental ABIEncoderV2;\n\n//import \"@chainlink/contracts/src/v0.6/ChainlinkClient.sol\";\nimport \"hardhat/console.sol\";\nimport \"@openzeppelin/contracts/token/ERC721/extensions/IERC721Enumerable.sol\";\nimport \"@chainlink/contracts/src/v0.8/VRFConsumerBase.sol\";\n\ncontract LensHub {\n    function getFollowNFT(uint256 profileId) external view returns (address) {return 0x0000000000000000000000000000000000000000;}\n\n    function defaultProfile(address wallet) external view returns (uint256) {return 0;}\n\n    function getProfileIdByHandle(string calldata handle) external view returns (uint256) {return 0;}\n\n    function getHandle(uint256 profileId) external view returns (string memory) {return \"\";}\n}\n\ncontract GiveawayModule is VRFConsumerBase {\n    event SendPrize(address indexed _from, address indexed _to, uint256 _value);\n    event TestDone(bytes32 requestId, uint256 randomness);\n\n    LensHub _lensHub;\n    mapping(uint256 => Giveaway[]) _giveaways;\n\n    bytes32 internal keyHash;\n    uint256 internal fee;\n    \n    uint256 public randomResult;\n\n    struct Giveaway {\n        address donor;\n        uint256 profileID; // this can be removed since it is the key of the mapping\n        uint256 amount;\n        address winner;\n    }\n\n    constructor() VRFConsumerBase(\n            0x8C7382F9D8f56b33781fE506E897a4F1e2d17255, // VRF Coordinator\n            0x326C977E6efc84E512bB9C30f76E30c160eD06FB  // LINK Token\n        ) {\n        address watch_addr = 0xd7B3481De00995046C7850bCe9a5196B7605c367; // lens hub proxy on mumbai testnet\n        _lensHub = LensHub(watch_addr);\n        keyHash = 0x6e75b569a01ef56d18cab6a8e71e6600d6ce853834d4a5748b720d06f878b3a4;\n        fee = 0.001 * 10 ** 18; // 0.0001 LINK\n    }\n\n    /** \n     * Requests randomness \n     */\n    function getRandomNumber() public returns (bytes32 requestId) {\n        require(LINK.balanceOf(address(this)) > fee, \"Not enough LINK - fill contract with faucet\");\n        return requestRandomness(keyHash, fee);\n    }\n\n    /**\n     * Callback function used by VRF Coordinator\n     */\n    function fulfillRandomness(bytes32 requestId, uint256 randomness) internal override {\n        randomResult = randomness;\n        emit TestDone(requestId, randomness);\n    }\n\n    function getFollower(uint256 profileID) public view returns (address[] memory follower){\n        address followNFTAddress = _lensHub.getFollowNFT(profileID);\n        // if a lens profile has no followers, the followNFT address is 0x0 \n        if (followNFTAddress == address(0)) {\n            return new address[](0);\n        }\n        IERC721Enumerable followNFT = IERC721Enumerable(followNFTAddress);\n        uint256 totalSupply = followNFT.totalSupply();\n        address[] memory follower = new address[](totalSupply);\n        for (uint256 i = 0; i < totalSupply; i++) {\n            follower[i] = followNFT.ownerOf(i + 1);\n        }\n        return follower;\n    }\n\n    function getUniqueFollower(uint256 profileID) public view returns (address[] memory follower){\n        IERC721Enumerable followNFT = IERC721Enumerable(_lensHub.getFollowNFT(profileID));\n        uint256 totalSupply = followNFT.totalSupply();\n        address[] memory follower = new address[](totalSupply);\n        uint256 duplicateCounter = 0;\n        for (uint256 i = 0; i < totalSupply; i++) {\n            bool isDuplicate = false;\n            address followerAddress = followNFT.ownerOf(i + 1);\n            for (uint256 j = 0; j < i; i++) {\n                if (follower[j] == followerAddress) {\n                    isDuplicate = true;\n                    duplicateCounter++;\n                    break;\n                }\n            }\n            if (!isDuplicate) {\n                follower[i - duplicateCounter] = followerAddress;\n            }\n        }\n        uint256 nUniqueFollower = totalSupply - duplicateCounter;\n        address[] memory uniqueFollower = new address[](nUniqueFollower);\n        for (uint256 i = 0; i < nUniqueFollower; i++) {\n            uniqueFollower[i] = follower[i];\n        }\n        return uniqueFollower;\n    }\n\n    function createGiveaway(uint256 profileID) public payable returns (Giveaway memory) {\n        address winner = _getRandomFollowerAddress(profileID);\n        address donor = msg.sender;\n        uint256 prize = msg.value;\n        Giveaway memory giveaway = Giveaway(donor, profileID, prize, winner);\n        (bool sent, bytes memory data) = payable(address(winner)).call{value : prize}(\"\");\n        emit SendPrize(donor, winner, prize);\n        _giveaways[profileID].push(giveaway);\n        return giveaway;\n    }\n\n    function getProfileIdByHandle(string calldata handle) public view returns (uint256){\n        return _lensHub.getProfileIdByHandle(handle);\n    }\n\n    function getGiveaways(uint256 profileID) public view returns (Giveaway[] memory) {\n        return _giveaways[profileID];\n    }\n\n    function _getRandomFollowerAddress(uint256 profileID) private view returns (address) {\n        address followNFTAddress = _lensHub.getFollowNFT(profileID);\n        if (followNFTAddress == address(0)) {\n            return address(0);\n        }\n        IERC721Enumerable followNFT = IERC721Enumerable(followNFTAddress);\n        uint256 totalSupply = followNFT.totalSupply();\n        uint256 randomNumber = uint256(keccak256(abi.encodePacked(block.difficulty, block.timestamp)));\n        uint256 winnerIndex = 1 + randomNumber % totalSupply;\n        return followNFT.ownerOf(winnerIndex);\n    }\n\n    function getHandle(uint256 profileID) public view returns (string memory) {\n        return _lensHub.getHandle(profileID);\n    }\n\n}\n",
  "sourcePath": "/Users/alex/crypto/lfgrow/lens-giveaway/contracts/GiveawayModule.sol",
  "compiler": {
    "name": "solc",
    "version": "0.8.13+commit.abaa5c0e.Emscripten.clang"
  },
  "schemaVersion": "3.4.5",
  "updatedAt": "2022-03-22T13:15:32.573Z",
  "networkType": "ethereum",
  "devdoc": {
    "kind": "dev",
    "methods": {},
    "version": 1
  },
  "userdoc": {
    "kind": "user",
    "methods": {
      "getRandomNumber()": {
        "notice": "Requests randomness "
      }
    },
    "version": 1
  }
}