{
  "contractName": "LensHub",
  "abi": [
    {
      "inputs": [
        {
          "internalType": "uint256",
          "name": "profileId",
          "type": "uint256"
        }
      ],
      "name": "getFollowNFT",
      "outputs": [
        {
          "internalType": "address",
          "name": "",
          "type": "address"
        }
      ],
      "stateMutability": "view",
      "type": "function"
    },
    {
      "inputs": [
        {
          "internalType": "address",
          "name": "wallet",
          "type": "address"
        }
      ],
      "name": "defaultProfile",
      "outputs": [
        {
          "internalType": "uint256",
          "name": "",
          "type": "uint256"
        }
      ],
      "stateMutability": "view",
      "type": "function"
    },
    {
      "inputs": [
        {
          "internalType": "string",
          "name": "handle",
          "type": "string"
        }
      ],
      "name": "getProfileIdByHandle",
      "outputs": [
        {
          "internalType": "uint256",
          "name": "",
          "type": "uint256"
        }
      ],
      "stateMutability": "view",
      "type": "function"
    }
  ],
  "bytecode": "0x608060405234801561001057600080fd5b50610320806100206000396000f3fe608060405234801561001057600080fd5b50600436106100415760003560e01c806320fa728a1461004657806392254a6214610076578063a9ec6563146100a6575b600080fd5b610060600480360381019061005b919061015b565b6100d6565b60405161006d91906101c1565b60405180910390f35b610090600480360381019061008b919061023a565b6100de565b60405161009d91906101c1565b60405180910390f35b6100c060048036038101906100bb9190610293565b6100e5565b6040516100cd91906102cf565b60405180910390f35b600092915050565b6000919050565b6000919050565b600080fd5b600080fd5b600080fd5b600080fd5b600080fd5b60008083601f84011261011b5761011a6100f6565b5b8235905067ffffffffffffffff811115610138576101376100fb565b5b60208301915083600182028301111561015457610153610100565b5b9250929050565b60008060208385031215610172576101716100ec565b5b600083013567ffffffffffffffff8111156101905761018f6100f1565b5b61019c85828601610105565b92509250509250929050565b6000819050919050565b6101bb816101a8565b82525050565b60006020820190506101d660008301846101b2565b92915050565b600073ffffffffffffffffffffffffffffffffffffffff82169050919050565b6000610207826101dc565b9050919050565b610217816101fc565b811461022257600080fd5b50565b6000813590506102348161020e565b92915050565b6000602082840312156102505761024f6100ec565b5b600061025e84828501610225565b91505092915050565b610270816101a8565b811461027b57600080fd5b50565b60008135905061028d81610267565b92915050565b6000602082840312156102a9576102a86100ec565b5b60006102b78482850161027e565b91505092915050565b6102c9816101fc565b82525050565b60006020820190506102e460008301846102c0565b9291505056fea2646970667358221220753529d821d94ecd1eb797f65b9f32ff888d38aa1d43176562ccb38c9044a95f64736f6c634300080d0033",
  "immutableReferences": {},
  "source": "// SPDX-License-Identifier: MIT\npragma solidity ^0.8.0;\npragma experimental ABIEncoderV2;\n\n//import \"@chainlink/contracts/src/v0.6/ChainlinkClient.sol\";\nimport \"hardhat/console.sol\";\nimport '@openzeppelin/contracts/token/ERC721/extensions/IERC721Enumerable.sol';\n\ncontract LensHub {\n    function getFollowNFT(uint256 profileId) external view returns (address) {return 0x0000000000000000000000000000000000000000;}\n\n    function defaultProfile(address wallet) external view returns (uint256) {return 0;}\n\n    function getProfileIdByHandle(string calldata handle) external view returns (uint256) {return 0;}\n}\n\ncontract MetaSnap {\n\n    LensHub _lensHub;\n    mapping(uint256 => Giveaway[]) _giveaways;\n\n    struct Giveaway {\n        address donor;\n        uint256 profileID;\n        uint256 amount;\n        address winner;\n    }\n\n    constructor() public {\n        address watch_addr = 0x038B86d9d8FAFdd0a02ebd1A476432877b0107C8;\n        _lensHub = LensHub(watch_addr);\n        console.log('constructor');\n        interact();\n        createGiveaway(1, 12);\n        createGiveaway(1, 13);\n        console.log('constructor finsihed');\n    }\n\n    function interact() public view returns (address[] memory){\n        address followNFTAddr = _lensHub.getFollowNFT(1);\n        IERC721Enumerable followNFT = IERC721Enumerable(followNFTAddr);\n        uint256 totalSupply = followNFT.totalSupply();\n        console.log(\"Follower:\");\n        address[] memory follower = new address[](totalSupply);\n        for (uint256 i = 1; i <= totalSupply; i++) {\n            follower[i - 1] = followNFT.ownerOf(i);\n            console.log(followNFT.ownerOf(i));\n        }\n        return follower;\n        //defaultProfile(address wallet)\n        //getHandle(uint256 profileId)\n        //getProfileIdByHandle(string calldata handle)\n    }\n\n    function getFollower(uint256 profileID) public view returns (address[] memory){\n        IERC721Enumerable followNFT = IERC721Enumerable(_lensHub.getFollowNFT(profileID));\n        uint256 totalSupply = followNFT.totalSupply();\n        address[] memory follower = new address[](totalSupply);\n        for (uint256 i = 1; i <= totalSupply; i++) {\n            follower[i - 1] = followNFT.ownerOf(i);\n        }\n        return follower;\n    }\n\n    function createGiveaway(uint256 profileID, uint256 amount) public returns (Giveaway[] memory) {\n        console.log('createGiveaway');\n        address winner = _getRandomFollowerAddress(profileID);\n        console.log('createGiveaway2');\n        Giveaway memory giveaway = Giveaway(msg.sender, profileID, _giveaways[profileID].length, winner);\n        console.log('createGiveaway3');\n        _giveaways[profileID].push(giveaway);\n        console.log('createGiveaway4');\n        return _giveaways[profileID];\n    }\n\n    function getProfileIdByHandle(string calldata handle) public view returns (uint256){\n        return _lensHub.getProfileIdByHandle(handle);\n    }\n\n    function _getRandomFollowerAddress(uint256 profileID) private returns (address) {\n        console.log('_getRandomFollowerAddress');\n        address watch_addr = 0x038B86d9d8FAFdd0a02ebd1A476432877b0107C8;\n        console.log('_getRandomFollowerAddress2');\n        _lensHub = LensHub(watch_addr);\n        console.log('_getRandomFollowerAddress3');\n        IERC721Enumerable followNFT = IERC721Enumerable(_lensHub.getFollowNFT(profileID));\n        console.log('_getRandomFollowerAddress4');\n        uint256 totalSupply = followNFT.totalSupply();\n        console.log('_getRandomFollowerAddress5');\n        uint256 random_number = uint256(keccak256(abi.encodePacked(block.difficulty, block.timestamp)));\n        console.log('_getRandomFollowerAddress6');\n        console.log(random_number);\n        console.log(totalSupply);\n        uint256 winnerIndex = 1 + random_number % totalSupply;\n        console.log(winnerIndex);\n        return followNFT.ownerOf(winnerIndex);\n    }\n\n}\n",
  "sourcePath": "/Users/korbinianabstreiter/crytoprojects/lens-giveaway/contracts/MetaSnap.sol",
  "compiler": {
    "name": "solc",
    "version": "0.8.13+commit.abaa5c0e.Emscripten.clang"
  },
  "schemaVersion": "3.4.5",
  "updatedAt": "2022-03-19T12:50:08.596Z",
  "devdoc": {
    "kind": "dev",
    "methods": {},
    "version": 1
  },
  "userdoc": {
    "kind": "user",
    "methods": {},
    "version": 1
  }
}