{
  "contractName": "LensHub",
  "abi": [
    {
      "inputs": [
        {
          "internalType": "uint256",
          "name": "profileId",
          "type": "uint256"
        }
      ],
      "name": "getFollowNFT",
      "outputs": [
        {
          "internalType": "address",
          "name": "",
          "type": "address"
        }
      ],
      "stateMutability": "view",
      "type": "function"
    },
    {
      "inputs": [
        {
          "internalType": "address",
          "name": "wallet",
          "type": "address"
        }
      ],
      "name": "defaultProfile",
      "outputs": [
        {
          "internalType": "uint256",
          "name": "",
          "type": "uint256"
        }
      ],
      "stateMutability": "view",
      "type": "function"
    },
    {
      "inputs": [
        {
          "internalType": "string",
          "name": "handle",
          "type": "string"
        }
      ],
      "name": "getProfileIdByHandle",
      "outputs": [
        {
          "internalType": "uint256",
          "name": "",
          "type": "uint256"
        }
      ],
      "stateMutability": "view",
      "type": "function"
    },
    {
      "inputs": [
        {
          "internalType": "uint256",
          "name": "profileId",
          "type": "uint256"
        }
      ],
      "name": "getHandle",
      "outputs": [
        {
          "internalType": "string",
          "name": "",
          "type": "string"
        }
      ],
      "stateMutability": "view",
      "type": "function"
    }
  ],
  "bytecode": "0x608060405234801561001057600080fd5b5061042f806100206000396000f3fe608060405234801561001057600080fd5b506004361061004c5760003560e01c806320fa728a1461005157806392254a6214610081578063a9ec6563146100b1578063ec81d194146100e1575b600080fd5b61006b600480360381019061006691906101af565b610111565b6040516100789190610215565b60405180910390f35b61009b6004803603810190610096919061028e565b610119565b6040516100a89190610215565b60405180910390f35b6100cb60048036038101906100c691906102e7565b610120565b6040516100d89190610323565b60405180910390f35b6100fb60048036038101906100f691906102e7565b610127565b60405161010891906103d7565b60405180910390f35b600092915050565b6000919050565b6000919050565b6060604051806020016040528060008152509050919050565b600080fd5b600080fd5b600080fd5b600080fd5b600080fd5b60008083601f84011261016f5761016e61014a565b5b8235905067ffffffffffffffff81111561018c5761018b61014f565b5b6020830191508360018202830111156101a8576101a7610154565b5b9250929050565b600080602083850312156101c6576101c5610140565b5b600083013567ffffffffffffffff8111156101e4576101e3610145565b5b6101f085828601610159565b92509250509250929050565b6000819050919050565b61020f816101fc565b82525050565b600060208201905061022a6000830184610206565b92915050565b600073ffffffffffffffffffffffffffffffffffffffff82169050919050565b600061025b82610230565b9050919050565b61026b81610250565b811461027657600080fd5b50565b60008135905061028881610262565b92915050565b6000602082840312156102a4576102a3610140565b5b60006102b284828501610279565b91505092915050565b6102c4816101fc565b81146102cf57600080fd5b50565b6000813590506102e1816102bb565b92915050565b6000602082840312156102fd576102fc610140565b5b600061030b848285016102d2565b91505092915050565b61031d81610250565b82525050565b60006020820190506103386000830184610314565b92915050565b600081519050919050565b600082825260208201905092915050565b60005b8381101561037857808201518184015260208101905061035d565b83811115610387576000848401525b50505050565b6000601f19601f8301169050919050565b60006103a98261033e565b6103b38185610349565b93506103c381856020860161035a565b6103cc8161038d565b840191505092915050565b600060208201905081810360008301526103f1818461039e565b90509291505056fea264697066735822122060d5c536bc353ca588aeb7d9d99d3b84ec685a1b0f15e22e08b136ef43a4dda364736f6c634300080d0033",
  "immutableReferences": {},
  "source": "// SPDX-License-Identifier: MIT\npragma solidity ^0.8.0;\npragma experimental ABIEncoderV2;\n\n//import \"@chainlink/contracts/src/v0.6/ChainlinkClient.sol\";\nimport \"hardhat/console.sol\";\nimport '@openzeppelin/contracts/token/ERC721/extensions/IERC721Enumerable.sol';\n\ncontract LensHub {\n    function getFollowNFT(uint256 profileId) external view returns (address) {return 0x0000000000000000000000000000000000000000;}\n\n    function defaultProfile(address wallet) external view returns (uint256) {return 0;}\n\n    function getProfileIdByHandle(string calldata handle) external view returns (uint256) {return 0;}\n\n    function getHandle(uint256 profileId) external view returns (string memory) {return \"\";}\n}\n\ncontract GiveawayModule {\n\n    event SendPrize(address indexed _from, address indexed _to, uint256 _value);\n\n    LensHub _lensHub;\n    mapping(uint256 => Giveaway[]) _giveaways;\n\n    struct Giveaway {\n        address donor;\n        uint256 profileID;\n        uint256 amount;\n        address winner;\n    }\n\n    constructor() public {\n        address watch_addr = 0xd7B3481De00995046C7850bCe9a5196B7605c367;\n        // lens hub proxy on mumbai testnet\n        _lensHub = LensHub(watch_addr);\n    }\n\n    function getFollower(uint256 profileID) public view returns (address[] memory follower){\n        address followNFTAddress = _lensHub.getFollowNFT(profileID);\n        if (followNFTAddress == address(0)) {\n            return new address[](0);\n        }\n        IERC721Enumerable followNFT = IERC721Enumerable(followNFTAddress);\n        uint256 totalSupply = followNFT.totalSupply();\n        address[] memory follower = new address[](totalSupply);\n        for (uint256 i = 0; i < totalSupply; i++) {\n            follower[i] = followNFT.ownerOf(i + 1);\n        }\n        return follower;\n    }\n\n    function getUniqueFollower(uint256 profileID) public view returns (address[] memory follower){\n        IERC721Enumerable followNFT = IERC721Enumerable(_lensHub.getFollowNFT(profileID));\n        uint256 totalSupply = followNFT.totalSupply();\n        address[] memory follower = new address[](totalSupply);\n        uint256 duplicateCounter = 0;\n        for (uint256 i = 0; i < totalSupply; i++) {\n            bool isDuplicate = false;\n            address followerAddress = followNFT.ownerOf(i + 1);\n            for (uint256 j = 0; j < i; i++) {\n                if (follower[j] == followerAddress) {\n                    isDuplicate = true;\n                    duplicateCounter++;\n                    break;\n                }\n            }\n            if (!isDuplicate) {\n                follower[i - duplicateCounter] = followerAddress;\n            }\n        }\n        uint256 nUniqueFollower = totalSupply - duplicateCounter;\n        address[] memory uniqueFollower = new address[](nUniqueFollower);\n        for (uint256 i = 0; i < nUniqueFollower; i++) {\n            uniqueFollower[i] = follower[i];\n        }\n        return uniqueFollower;\n    }\n\n    function createGiveaway(uint256 profileID) public payable returns (Giveaway memory) {\n        address winner = _getRandomFollowerAddress(profileID);\n        address donor = msg.sender;\n        uint256 prize = msg.value;\n        Giveaway memory giveaway = Giveaway(donor, profileID, prize, winner);\n        // transfer amount to winner\n        (bool sent, bytes memory data) = payable(address(winner)).call{value : prize}(\"\");\n        emit SendPrize(donor, winner, prize);\n        _giveaways[profileID].push(giveaway);\n        return giveaway;\n    }\n\n    function getProfileIdByHandle(string calldata handle) public view returns (uint256){\n        return _lensHub.getProfileIdByHandle(handle);\n    }\n\n    function getGiveaways(uint256 profileID) public view returns (Giveaway[] memory) {\n        return _giveaways[profileID];\n    }\n\n    function _getRandomFollowerAddress(uint256 profileID) private view returns (address) {\n        address followNFTAddress = _lensHub.getFollowNFT(profileID);\n        if (followNFTAddress == address(0)) {\n            return address(0);\n        }\n        IERC721Enumerable followNFT = IERC721Enumerable(followNFTAddress);\n        uint256 totalSupply = followNFT.totalSupply();\n        uint256 randomNumber = uint256(keccak256(abi.encodePacked(block.difficulty, block.timestamp)));\n        uint256 winnerIndex = 1 + randomNumber % totalSupply;\n        return followNFT.ownerOf(winnerIndex);\n    }\n\n    function getHandle(uint256 profileID) public view returns (string memory) {\n        return _lensHub.getHandle(profileID);\n    }\n\n}\n",
  "sourcePath": "/Users/korbinianabstreiter/crytoprojects/lens-giveaway/contracts/GiveawayModule.sol",
  "compiler": {
    "name": "solc",
    "version": "0.8.13+commit.abaa5c0e.Emscripten.clang"
  },
  "schemaVersion": "3.4.5",
  "updatedAt": "2022-03-21T18:51:51.671Z",
  "devdoc": {
    "kind": "dev",
    "methods": {},
    "version": 1
  },
  "userdoc": {
    "kind": "user",
    "methods": {},
    "version": 1
  }
}