{
  "contractName": "MetaSnap",
  "abi": [
    {
      "inputs": [],
      "stateMutability": "nonpayable",
      "type": "constructor"
    },
    {
      "anonymous": false,
      "inputs": [
        {
          "indexed": true,
          "internalType": "address",
          "name": "_from",
          "type": "address"
        },
        {
          "indexed": true,
          "internalType": "address",
          "name": "_to",
          "type": "address"
        },
        {
          "indexed": false,
          "internalType": "uint256",
          "name": "_value",
          "type": "uint256"
        }
      ],
      "name": "SendPrize",
      "type": "event"
    },
    {
      "inputs": [],
      "name": "interact",
      "outputs": [
        {
          "internalType": "address[]",
          "name": "",
          "type": "address[]"
        }
      ],
      "stateMutability": "view",
      "type": "function",
      "constant": true
    },
    {
      "inputs": [
        {
          "internalType": "uint256",
          "name": "profileID",
          "type": "uint256"
        }
      ],
      "name": "getFollower",
      "outputs": [
        {
          "internalType": "address[]",
          "name": "follower",
          "type": "address[]"
        }
      ],
      "stateMutability": "view",
      "type": "function",
      "constant": true
    },
    {
      "inputs": [
        {
          "internalType": "uint256",
          "name": "profileID",
          "type": "uint256"
        }
      ],
      "name": "getUniqueFollower",
      "outputs": [
        {
          "internalType": "address[]",
          "name": "follower",
          "type": "address[]"
        }
      ],
      "stateMutability": "view",
      "type": "function",
      "constant": true
    },
    {
      "inputs": [
        {
          "internalType": "uint256",
          "name": "profileID",
          "type": "uint256"
        }
      ],
      "name": "createGiveaway",
      "outputs": [
        {
          "components": [
            {
              "internalType": "address",
              "name": "donor",
              "type": "address"
            },
            {
              "internalType": "uint256",
              "name": "profileID",
              "type": "uint256"
            },
            {
              "internalType": "uint256",
              "name": "amount",
              "type": "uint256"
            },
            {
              "internalType": "address",
              "name": "winner",
              "type": "address"
            }
          ],
          "internalType": "struct MetaSnap.Giveaway",
          "name": "",
          "type": "tuple"
        }
      ],
      "stateMutability": "payable",
      "type": "function",
      "payable": true
    },
    {
      "inputs": [
        {
          "internalType": "string",
          "name": "handle",
          "type": "string"
        }
      ],
      "name": "getProfileIdByHandle",
      "outputs": [
        {
          "internalType": "uint256",
          "name": "",
          "type": "uint256"
        }
      ],
      "stateMutability": "view",
      "type": "function",
      "constant": true
    },
    {
      "inputs": [
        {
          "internalType": "uint256",
          "name": "profileID",
          "type": "uint256"
        }
      ],
      "name": "getGiveaways",
      "outputs": [
        {
          "components": [
            {
              "internalType": "address",
              "name": "donor",
              "type": "address"
            },
            {
              "internalType": "uint256",
              "name": "profileID",
              "type": "uint256"
            },
            {
              "internalType": "uint256",
              "name": "amount",
              "type": "uint256"
            },
            {
              "internalType": "address",
              "name": "winner",
              "type": "address"
            }
          ],
          "internalType": "struct MetaSnap.Giveaway[]",
          "name": "",
          "type": "tuple[]"
        }
      ],
      "stateMutability": "view",
      "type": "function",
      "constant": true
    }
  ],
  "bytecode": "0x60806040523480156200001157600080fd5b50600073d7b3481de00995046c7850bce9a5196b7605c3679050806000806101000a81548173ffffffffffffffffffffffffffffffffffffffff021916908373ffffffffffffffffffffffffffffffffffffffff160217905550620000b66040518060400160405280600b81526020017f636f6e7374727563746f72000000000000000000000000000000000000000000815250620000bd60201b62000f981760201c565b5062000251565b6200015d81604051602401620000d491906200022d565b6040516020818303038152906040527f41304fac000000000000000000000000000000000000000000000000000000007bffffffffffffffffffffffffffffffffffffffffffffffffffffffff19166020820180517bffffffffffffffffffffffffffffffffffffffffffffffffffffffff83818316178352505050506200016060201b60201c565b50565b60008151905060006a636f6e736f6c652e6c6f679050602083016000808483855afa5050505050565b600081519050919050565b600082825260208201905092915050565b60005b83811015620001c5578082015181840152602081019050620001a8565b83811115620001d5576000848401525b50505050565b6000601f19601f8301169050919050565b6000620001f98262000189565b62000205818562000194565b935062000217818560208601620001a5565b6200022281620001db565b840191505092915050565b60006020820190508181036000830152620002498184620001ec565b905092915050565b611c9480620002616000396000f3fe6080604052600436106100555760003560e01c806315a8510c1461005a57806320fa728a1461009757806352337ab0146100d45780635542b276146100ff578063bf24d3661461013c578063ec7efa521461016c575b600080fd5b34801561006657600080fd5b50610081600480360381019061007c919061140c565b6101a9565b60405161008e9190611529565b60405180910390f35b3480156100a357600080fd5b506100be60048036038101906100b991906115b0565b610407565b6040516100cb919061160c565b60405180910390f35b3480156100e057600080fd5b506100e96104ae565b6040516100f69190611529565b60405180910390f35b34801561010b57600080fd5b506101266004803603810190610121919061140c565b6107d4565b6040516101339190611529565b60405180910390f35b6101566004803603810190610151919061140c565b610bb6565b604051610163919061168b565b60405180910390f35b34801561017857600080fd5b50610193600480360381019061018e919061140c565b610e66565b6040516101a091906117aa565b60405180910390f35b606060008060009054906101000a900473ffffffffffffffffffffffffffffffffffffffff1673ffffffffffffffffffffffffffffffffffffffff1663a9ec6563846040518263ffffffff1660e01b8152600401610207919061160c565b602060405180830381865afa158015610224573d6000803e3d6000fd5b505050506040513d601f19601f8201168201806040525081019061024891906117f8565b905060008173ffffffffffffffffffffffffffffffffffffffff166318160ddd6040518163ffffffff1660e01b8152600401602060405180830381865afa158015610297573d6000803e3d6000fd5b505050506040513d601f19601f820116820180604052508101906102bb919061183a565b905060008167ffffffffffffffff8111156102d9576102d8611867565b5b6040519080825280602002602001820160405280156103075781602001602082028036833780820191505090505b50905060005b828110156103fb578373ffffffffffffffffffffffffffffffffffffffff16636352211e60018361033e91906118c5565b6040518263ffffffff1660e01b815260040161035a919061160c565b602060405180830381865afa158015610377573d6000803e3d6000fd5b505050506040513d601f19601f8201168201806040525081019061039b91906117f8565b8282815181106103ae576103ad61191b565b5b602002602001019073ffffffffffffffffffffffffffffffffffffffff16908173ffffffffffffffffffffffffffffffffffffffff168152505080806103f39061194a565b91505061030d565b50809350505050919050565b60008060009054906101000a900473ffffffffffffffffffffffffffffffffffffffff1673ffffffffffffffffffffffffffffffffffffffff166320fa728a84846040518363ffffffff1660e01b81526004016104659291906119f0565b602060405180830381865afa158015610482573d6000803e3d6000fd5b505050506040513d601f19601f820116820180604052508101906104a6919061183a565b905092915050565b606060008060009054906101000a900473ffffffffffffffffffffffffffffffffffffffff1673ffffffffffffffffffffffffffffffffffffffff1663a9ec656360016040518263ffffffff1660e01b815260040161050d9190611a59565b602060405180830381865afa15801561052a573d6000803e3d6000fd5b505050506040513d601f19601f8201168201806040525081019061054e91906117f8565b9050600081905060008173ffffffffffffffffffffffffffffffffffffffff166318160ddd6040518163ffffffff1660e01b8152600401602060405180830381865afa1580156105a2573d6000803e3d6000fd5b505050506040513d601f19601f820116820180604052508101906105c6919061183a565b90506106066040518060400160405280600981526020017f466f6c6c6f7765723a0000000000000000000000000000000000000000000000815250610f98565b60008167ffffffffffffffff81111561062257610621611867565b5b6040519080825280602002602001820160405280156106505781602001602082028036833780820191505090505b5090506000600190505b8281116107c9578373ffffffffffffffffffffffffffffffffffffffff16636352211e826040518263ffffffff1660e01b815260040161069a919061160c565b602060405180830381865afa1580156106b7573d6000803e3d6000fd5b505050506040513d601f19601f820116820180604052508101906106db91906117f8565b826001836106e99190611a74565b815181106106fa576106f961191b565b5b602002602001019073ffffffffffffffffffffffffffffffffffffffff16908173ffffffffffffffffffffffffffffffffffffffff16815250506107b68473ffffffffffffffffffffffffffffffffffffffff16636352211e836040518263ffffffff1660e01b8152600401610770919061160c565b602060405180830381865afa15801561078d573d6000803e3d6000fd5b505050506040513d601f19601f820116820180604052508101906107b191906117f8565b611031565b80806107c19061194a565b91505061065a565b508094505050505090565b606060008060009054906101000a900473ffffffffffffffffffffffffffffffffffffffff1673ffffffffffffffffffffffffffffffffffffffff1663a9ec6563846040518263ffffffff1660e01b8152600401610832919061160c565b602060405180830381865afa15801561084f573d6000803e3d6000fd5b505050506040513d601f19601f8201168201806040525081019061087391906117f8565b905060008173ffffffffffffffffffffffffffffffffffffffff166318160ddd6040518163ffffffff1660e01b8152600401602060405180830381865afa1580156108c2573d6000803e3d6000fd5b505050506040513d601f19601f820116820180604052508101906108e6919061183a565b905060008167ffffffffffffffff81111561090457610903611867565b5b6040519080825280602002602001820160405280156109325781602001602082028036833780820191505090505b5090506000805b83811015610ac3576000808673ffffffffffffffffffffffffffffffffffffffff16636352211e60018561096d91906118c5565b6040518263ffffffff1660e01b8152600401610989919061160c565b602060405180830381865afa1580156109a6573d6000803e3d6000fd5b505050506040513d601f19601f820116820180604052508101906109ca91906117f8565b905060005b83811015610a4e578173ffffffffffffffffffffffffffffffffffffffff16868281518110610a0157610a0061191b565b5b602002602001015173ffffffffffffffffffffffffffffffffffffffff1603610a3b57600192508480610a339061194a565b955050610a4e565b8380610a469061194a565b9450506109cf565b5081610aae5780858585610a629190611a74565b81518110610a7357610a7261191b565b5b602002602001019073ffffffffffffffffffffffffffffffffffffffff16908173ffffffffffffffffffffffffffffffffffffffff16815250505b50508080610abb9061194a565b915050610939565b5060008184610ad29190611a74565b905060008167ffffffffffffffff811115610af057610aef611867565b5b604051908082528060200260200182016040528015610b1e5781602001602082028036833780820191505090505b50905060005b82811015610ba757848181518110610b3f57610b3e61191b565b5b6020026020010151828281518110610b5a57610b5961191b565b5b602002602001019073ffffffffffffffffffffffffffffffffffffffff16908173ffffffffffffffffffffffffffffffffffffffff16815250508080610b9f9061194a565b915050610b24565b50809650505050505050919050565b610bbe611378565b6000610bc9836110ca565b905060003390506000349050600060405180608001604052808473ffffffffffffffffffffffffffffffffffffffff1681526020018781526020018381526020018573ffffffffffffffffffffffffffffffffffffffff168152509050610c646040518060400160405280600781526020017f62616c616e636500000000000000000000000000000000000000000000000000815250610f98565b610c848473ffffffffffffffffffffffffffffffffffffffff16316112b6565b6000808573ffffffffffffffffffffffffffffffffffffffff1684604051610cab90611ad9565b60006040518083038185875af1925050503d8060008114610ce8576040519150601f19603f3d011682016040523d82523d6000602084013e610ced565b606091505b50915091508573ffffffffffffffffffffffffffffffffffffffff168573ffffffffffffffffffffffffffffffffffffffff167f97bda46e04e64f71ccb885f6f7505123afa924649d2c74da63444c39589ad3b586604051610d4f919061160c565b60405180910390a3610d778673ffffffffffffffffffffffffffffffffffffffff16316112b6565b6001600089815260200190815260200160002083908060018154018082558091505060019003906000526020600020906004020160009091909190915060008201518160000160006101000a81548173ffffffffffffffffffffffffffffffffffffffff021916908373ffffffffffffffffffffffffffffffffffffffff160217905550602082015181600101556040820151816002015560608201518160030160006101000a81548173ffffffffffffffffffffffffffffffffffffffff021916908373ffffffffffffffffffffffffffffffffffffffff1602179055505050829650505050505050919050565b606060016000838152602001908152602001600020805480602002602001604051908101604052809291908181526020016000905b82821015610f8d57838290600052602060002090600402016040518060800160405290816000820160009054906101000a900473ffffffffffffffffffffffffffffffffffffffff1673ffffffffffffffffffffffffffffffffffffffff1673ffffffffffffffffffffffffffffffffffffffff16815260200160018201548152602001600282015481526020016003820160009054906101000a900473ffffffffffffffffffffffffffffffffffffffff1673ffffffffffffffffffffffffffffffffffffffff1673ffffffffffffffffffffffffffffffffffffffff168152505081526020019060010190610e9b565b505050509050919050565b61102e81604051602401610fac9190611b65565b6040516020818303038152906040527f41304fac000000000000000000000000000000000000000000000000000000007bffffffffffffffffffffffffffffffffffffffffffffffffffffffff19166020820180517bffffffffffffffffffffffffffffffffffffffffffffffffffffffff838183161783525050505061134f565b50565b6110c7816040516024016110459190611b96565b6040516020818303038152906040527f2c2ecbc2000000000000000000000000000000000000000000000000000000007bffffffffffffffffffffffffffffffffffffffffffffffffffffffff19166020820180517bffffffffffffffffffffffffffffffffffffffffffffffffffffffff838183161783525050505061134f565b50565b60008060008054906101000a900473ffffffffffffffffffffffffffffffffffffffff1673ffffffffffffffffffffffffffffffffffffffff1663a9ec6563846040518263ffffffff1660e01b8152600401611126919061160c565b602060405180830381865afa158015611143573d6000803e3d6000fd5b505050506040513d601f19601f8201168201806040525081019061116791906117f8565b905060008173ffffffffffffffffffffffffffffffffffffffff166318160ddd6040518163ffffffff1660e01b8152600401602060405180830381865afa1580156111b6573d6000803e3d6000fd5b505050506040513d601f19601f820116820180604052508101906111da919061183a565b9050600044426040516020016111f1929190611bd2565b6040516020818303038152906040528051906020012060001c90506000828261121a9190611c2d565b600161122691906118c5565b9050611231816112b6565b8373ffffffffffffffffffffffffffffffffffffffff16636352211e826040518263ffffffff1660e01b815260040161126a919061160c565b602060405180830381865afa158015611287573d6000803e3d6000fd5b505050506040513d601f19601f820116820180604052508101906112ab91906117f8565b945050505050919050565b61134c816040516024016112ca919061160c565b6040516020818303038152906040527ff5b1bba9000000000000000000000000000000000000000000000000000000007bffffffffffffffffffffffffffffffffffffffffffffffffffffffff19166020820180517bffffffffffffffffffffffffffffffffffffffffffffffffffffffff838183161783525050505061134f565b50565b60008151905060006a636f6e736f6c652e6c6f679050602083016000808483855afa5050505050565b6040518060800160405280600073ffffffffffffffffffffffffffffffffffffffff1681526020016000815260200160008152602001600073ffffffffffffffffffffffffffffffffffffffff1681525090565b600080fd5b600080fd5b6000819050919050565b6113e9816113d6565b81146113f457600080fd5b50565b600081359050611406816113e0565b92915050565b600060208284031215611422576114216113cc565b5b6000611430848285016113f7565b91505092915050565b600081519050919050565b600082825260208201905092915050565b6000819050602082019050919050565b600073ffffffffffffffffffffffffffffffffffffffff82169050919050565b600061149082611465565b9050919050565b6114a081611485565b82525050565b60006114b28383611497565b60208301905092915050565b6000602082019050919050565b60006114d682611439565b6114e08185611444565b93506114eb83611455565b8060005b8381101561151c57815161150388826114a6565b975061150e836114be565b9250506001810190506114ef565b5085935050505092915050565b6000602082019050818103600083015261154381846114cb565b905092915050565b600080fd5b600080fd5b600080fd5b60008083601f8401126115705761156f61154b565b5b8235905067ffffffffffffffff81111561158d5761158c611550565b5b6020830191508360018202830111156115a9576115a8611555565b5b9250929050565b600080602083850312156115c7576115c66113cc565b5b600083013567ffffffffffffffff8111156115e5576115e46113d1565b5b6115f18582860161155a565b92509250509250929050565b611606816113d6565b82525050565b600060208201905061162160008301846115fd565b92915050565b611630816113d6565b82525050565b60808201600082015161164c6000850182611497565b50602082015161165f6020850182611627565b5060408201516116726040850182611627565b5060608201516116856060850182611497565b50505050565b60006080820190506116a06000830184611636565b92915050565b600081519050919050565b600082825260208201905092915050565b6000819050602082019050919050565b6080820160008201516116e86000850182611497565b5060208201516116fb6020850182611627565b50604082015161170e6040850182611627565b5060608201516117216060850182611497565b50505050565b600061173383836116d2565b60808301905092915050565b6000602082019050919050565b6000611757826116a6565b61176181856116b1565b935061176c836116c2565b8060005b8381101561179d5781516117848882611727565b975061178f8361173f565b925050600181019050611770565b5085935050505092915050565b600060208201905081810360008301526117c4818461174c565b905092915050565b6117d581611485565b81146117e057600080fd5b50565b6000815190506117f2816117cc565b92915050565b60006020828403121561180e5761180d6113cc565b5b600061181c848285016117e3565b91505092915050565b600081519050611834816113e0565b92915050565b6000602082840312156118505761184f6113cc565b5b600061185e84828501611825565b91505092915050565b7f4e487b7100000000000000000000000000000000000000000000000000000000600052604160045260246000fd5b7f4e487b7100000000000000000000000000000000000000000000000000000000600052601160045260246000fd5b60006118d0826113d6565b91506118db836113d6565b9250827fffffffffffffffffffffffffffffffffffffffffffffffffffffffffffffffff038211156119105761190f611896565b5b828201905092915050565b7f4e487b7100000000000000000000000000000000000000000000000000000000600052603260045260246000fd5b6000611955826113d6565b91507fffffffffffffffffffffffffffffffffffffffffffffffffffffffffffffffff820361198757611986611896565b5b600182019050919050565b600082825260208201905092915050565b82818337600083830152505050565b6000601f19601f8301169050919050565b60006119cf8385611992565b93506119dc8385846119a3565b6119e5836119b2565b840190509392505050565b60006020820190508181036000830152611a0b8184866119c3565b90509392505050565b6000819050919050565b6000819050919050565b6000611a43611a3e611a3984611a14565b611a1e565b6113d6565b9050919050565b611a5381611a28565b82525050565b6000602082019050611a6e6000830184611a4a565b92915050565b6000611a7f826113d6565b9150611a8a836113d6565b925082821015611a9d57611a9c611896565b5b828203905092915050565b600081905092915050565b50565b6000611ac3600083611aa8565b9150611ace82611ab3565b600082019050919050565b6000611ae482611ab6565b9150819050919050565b600081519050919050565b60005b83811015611b17578082015181840152602081019050611afc565b83811115611b26576000848401525b50505050565b6000611b3782611aee565b611b418185611992565b9350611b51818560208601611af9565b611b5a816119b2565b840191505092915050565b60006020820190508181036000830152611b7f8184611b2c565b905092915050565b611b9081611485565b82525050565b6000602082019050611bab6000830184611b87565b92915050565b6000819050919050565b611bcc611bc7826113d6565b611bb1565b82525050565b6000611bde8285611bbb565b602082019150611bee8284611bbb565b6020820191508190509392505050565b7f4e487b7100000000000000000000000000000000000000000000000000000000600052601260045260246000fd5b6000611c38826113d6565b9150611c43836113d6565b925082611c5357611c52611bfe565b5b82820690509291505056fea2646970667358221220910200e30967b7c86c8ed18a664d339ab121a00c08b67dd511633a61b3ad8bb464736f6c634300080d0033",
  "immutableReferences": {},
  "source": "// SPDX-License-Identifier: MIT\npragma solidity ^0.8.0;\npragma experimental ABIEncoderV2;\n\n//import \"@chainlink/contracts/src/v0.6/ChainlinkClient.sol\";\nimport \"hardhat/console.sol\";\nimport '@openzeppelin/contracts/token/ERC721/extensions/IERC721Enumerable.sol';\n\ncontract LensHub {\n    function getFollowNFT(uint256 profileId) external view returns (address) {return 0x0000000000000000000000000000000000000000;}\n\n    function defaultProfile(address wallet) external view returns (uint256) {return 0;}\n\n    function getProfileIdByHandle(string calldata handle) external view returns (uint256) {return 0;}\n}\n\ncontract MetaSnap {\n\n    event SendPrize(address indexed _from, address indexed _to, uint256 _value);\n\n    LensHub _lensHub;\n    mapping(uint256 => Giveaway[]) _giveaways;\n\n    struct Giveaway {\n        address donor;\n        uint256 profileID;\n        uint256 amount;\n        address winner;\n    }\n\n    constructor() public {\n        address watch_addr = 0xd7B3481De00995046C7850bCe9a5196B7605c367; // lens hub proxy on mumbai testnet\n        _lensHub = LensHub(watch_addr);\n        console.log('constructor');\n    }\n\n    function interact() public view returns (address[] memory){\n        address followNFTAddr = _lensHub.getFollowNFT(1);\n        IERC721Enumerable followNFT = IERC721Enumerable(followNFTAddr);\n        uint256 totalSupply = followNFT.totalSupply();\n        console.log(\"Follower:\");\n        address[] memory follower = new address[](totalSupply);\n        for (uint256 i = 1; i <= totalSupply; i++) {\n            follower[i - 1] = followNFT.ownerOf(i);\n            console.log(followNFT.ownerOf(i));\n        }\n        return follower;\n    }\n\n    function getFollower(uint256 profileID) public view returns (address[] memory follower){\n        IERC721Enumerable followNFT = IERC721Enumerable(_lensHub.getFollowNFT(profileID));\n        uint256 totalSupply = followNFT.totalSupply();\n        address[] memory follower = new address[](totalSupply);\n        for (uint256 i = 0; i < totalSupply; i++) {\n            follower[i] = followNFT.ownerOf(i + 1);\n        }\n        return follower;\n    }\n\n    function getUniqueFollower(uint256 profileID) public view returns (address[] memory follower){\n        IERC721Enumerable followNFT = IERC721Enumerable(_lensHub.getFollowNFT(profileID));\n        uint256 totalSupply = followNFT.totalSupply();\n        address[] memory follower = new address[](totalSupply);\n        uint256 duplicateCounter = 0;\n        for (uint256 i = 0; i < totalSupply; i++) {\n            bool isDuplicate = false;\n            address followerAddress = followNFT.ownerOf(i + 1);\n            for (uint256 j = 0; j < i; i++) {\n                if (follower[j] == followerAddress) {\n                    isDuplicate = true;\n                    duplicateCounter++;\n                    break;\n                }\n            }\n            if (!isDuplicate) {\n                follower[i - duplicateCounter] = followerAddress;\n            }\n        }\n        uint256 nUniqueFollower = totalSupply - duplicateCounter;\n        address[] memory uniqueFollower = new address[](nUniqueFollower);\n        for (uint256 i = 0; i < nUniqueFollower; i++) {\n            uniqueFollower[i] = follower[i];\n        }\n        return uniqueFollower;\n    }\n\n    function createGiveaway(uint256 profileID) public payable returns (Giveaway memory) {\n        address winner = _getRandomFollowerAddress(profileID);\n        address donor = msg.sender;\n        uint256 prize = msg.value;\n        Giveaway memory giveaway = Giveaway(donor, profileID, prize, winner);\n        // transfer amount to winner\n        console.log('balance');\n        console.log(address(winner).balance);\n        (bool sent, bytes memory data) = payable(address(winner)).call{value: prize}(\"\");\n        //winner.call(prize)(\"\");\n        //payable(address(winner)).transfer(prize);//msg.sender.call.value(amount)(\"\");\n        emit SendPrize(donor, winner, prize);\n        console.log(address(winner).balance);\n        _giveaways[profileID].push(giveaway);\n        return giveaway;\n    }\n\n    function getProfileIdByHandle(string calldata handle) public view returns (uint256){\n        return _lensHub.getProfileIdByHandle(handle);\n    }\n\n    function getGiveaways(uint256 profileID) public view returns (Giveaway[] memory) {\n        return _giveaways[profileID];\n    }\n\n    function _getRandomFollowerAddress(uint256 profileID) private view returns (address) {\n        IERC721Enumerable followNFT = IERC721Enumerable(_lensHub.getFollowNFT(profileID));\n        uint256 totalSupply = followNFT.totalSupply();\n        uint256 randomNumber = uint256(keccak256(abi.encodePacked(block.difficulty, block.timestamp)));\n        uint256 winnerIndex = 1 + randomNumber % totalSupply;\n        console.log(winnerIndex);\n        return followNFT.ownerOf(winnerIndex);\n    }\n\n}\n",
  "sourcePath": "/Users/alex/crypto/lfgrow/lens-giveaway/contracts/MetaSnap.sol",
  "compiler": {
    "name": "solc",
    "version": "0.8.13+commit.abaa5c0e.Emscripten.clang"
  },
  "schemaVersion": "3.4.5",
  "updatedAt": "2022-03-21T16:40:15.299Z",
  "networkType": "ethereum",
  "devdoc": {
    "kind": "dev",
    "methods": {},
    "version": 1
  },
  "userdoc": {
    "kind": "user",
    "methods": {},
    "version": 1
  }
}