{
  "contractName": "MetaSnap",
  "abi": [
    {
      "inputs": [],
      "stateMutability": "nonpayable",
      "type": "constructor"
    },
    {
      "inputs": [],
      "name": "interact",
      "outputs": [
        {
          "internalType": "address[]",
          "name": "",
          "type": "address[]"
        }
      ],
      "stateMutability": "view",
      "type": "function",
      "constant": true
    },
    {
      "inputs": [
        {
          "internalType": "uint256",
          "name": "profileID",
          "type": "uint256"
        }
      ],
      "name": "getFollower",
      "outputs": [
        {
          "internalType": "address[]",
          "name": "",
          "type": "address[]"
        }
      ],
      "stateMutability": "view",
      "type": "function",
      "constant": true
    },
    {
      "inputs": [
        {
          "internalType": "uint256",
          "name": "profileID",
          "type": "uint256"
        },
        {
          "internalType": "uint256",
          "name": "amount",
          "type": "uint256"
        }
      ],
      "name": "createGiveaway",
      "outputs": [
        {
          "components": [
            {
              "internalType": "address",
              "name": "donor",
              "type": "address"
            },
            {
              "internalType": "uint256",
              "name": "profileID",
              "type": "uint256"
            },
            {
              "internalType": "uint256",
              "name": "amount",
              "type": "uint256"
            },
            {
              "internalType": "address",
              "name": "winner",
              "type": "address"
            }
          ],
          "internalType": "struct MetaSnap.Giveaway",
          "name": "",
          "type": "tuple"
        }
      ],
      "stateMutability": "nonpayable",
      "type": "function"
    },
    {
      "inputs": [
        {
          "internalType": "string",
          "name": "handle",
          "type": "string"
        }
      ],
      "name": "getProfileIdByHandle",
      "outputs": [
        {
          "internalType": "uint256",
          "name": "",
          "type": "uint256"
        }
      ],
      "stateMutability": "view",
      "type": "function",
      "constant": true
    }
  ],
  "bytecode": "0x60806040523480156200001157600080fd5b50600073038b86d9d8fafdd0a02ebd1a476432877b0107c89050806000806101000a81548173ffffffffffffffffffffffffffffffffffffffff021916908373ffffffffffffffffffffffffffffffffffffffff160217905550620000b66040518060400160405280600b81526020017f636f6e7374727563746f720000000000000000000000000000000000000000008152506200012e60201b620009771760201c565b620000c6620001d160201b60201c565b50620000db6001600c6200053060201b60201c565b50620001276040518060400160405280601481526020017f636f6e7374727563746f722066696e73696865640000000000000000000000008152506200012e60201b620009771760201c565b506200132f565b620001ce8160405160240162000145919062000e5b565b6040516020818303038152906040527f41304fac000000000000000000000000000000000000000000000000000000007bffffffffffffffffffffffffffffffffffffffffffffffffffffffff19166020820180517bffffffffffffffffffffffffffffffffffffffffffffffffffffffff8381831617835250505050620007b860201b60201c565b50565b606060008060009054906101000a900473ffffffffffffffffffffffffffffffffffffffff1673ffffffffffffffffffffffffffffffffffffffff1663a9ec656360016040518263ffffffff1660e01b815260040162000232919062000ed6565b602060405180830381865afa15801562000250573d6000803e3d6000fd5b505050506040513d601f19601f8201168201806040525081019062000276919062000f5d565b9050600081905060008173ffffffffffffffffffffffffffffffffffffffff166318160ddd6040518163ffffffff1660e01b8152600401602060405180830381865afa158015620002cb573d6000803e3d6000fd5b505050506040513d601f19601f82011682018060405250810190620002f1919062000fc0565b90506200033e6040518060400160405280600981526020017f466f6c6c6f7765723a00000000000000000000000000000000000000000000008152506200012e60201b620009771760201c565b60008167ffffffffffffffff8111156200035d576200035c62000ff2565b5b6040519080825280602002602001820160405280156200038c5781602001602082028036833780820191505090505b5090506000600190505b82811162000525578373ffffffffffffffffffffffffffffffffffffffff16636352211e826040518263ffffffff1660e01b8152600401620003d9919062001032565b602060405180830381865afa158015620003f7573d6000803e3d6000fd5b505050506040513d601f19601f820116820180604052508101906200041d919062000f5d565b826001836200042d91906200107e565b81518110620004415762000440620010b9565b5b602002602001019073ffffffffffffffffffffffffffffffffffffffff16908173ffffffffffffffffffffffffffffffffffffffff16815250506200050f8473ffffffffffffffffffffffffffffffffffffffff16636352211e836040518263ffffffff1660e01b8152600401620004ba919062001032565b602060405180830381865afa158015620004d8573d6000803e3d6000fd5b505050506040513d601f19601f82011682018060405250810190620004fe919062000f5d565b620007e160201b62000a101760201c565b80806200051c90620010e8565b91505062000396565b508094505050505090565b6200053a62000d63565b620005856040518060400160405280600e81526020017f63726561746547697665617761790000000000000000000000000000000000008152506200012e60201b620009771760201c565b600062000598846200088460201b60201c565b9050620005e56040518060400160405280600f81526020017f63726561746547697665617761793200000000000000000000000000000000008152506200012e60201b620009771760201c565b600060405180608001604052803373ffffffffffffffffffffffffffffffffffffffff1681526020018681526020018581526020018373ffffffffffffffffffffffffffffffffffffffff168152509050620006816040518060400160405280600f81526020017f63726561746547697665617761793300000000000000000000000000000000008152506200012e60201b620009771760201c565b6001600086815260200190815260200160002081908060018154018082558091505060019003906000526020600020906004020160009091909190915060008201518160000160006101000a81548173ffffffffffffffffffffffffffffffffffffffff021916908373ffffffffffffffffffffffffffffffffffffffff160217905550602082015181600101556040820151816002015560608201518160030160006101000a81548173ffffffffffffffffffffffffffffffffffffffff021916908373ffffffffffffffffffffffffffffffffffffffff1602179055505050620007ad6040518060400160405280600f81526020017f63726561746547697665617761793400000000000000000000000000000000008152506200012e60201b620009771760201c565b809250505092915050565b60008151905060006a636f6e736f6c652e6c6f679050602083016000808483855afa5050505050565b6200088181604051602401620007f8919062001146565b6040516020818303038152906040527f2c2ecbc2000000000000000000000000000000000000000000000000000000007bffffffffffffffffffffffffffffffffffffffffffffffffffffffff19166020820180517bffffffffffffffffffffffffffffffffffffffffffffffffffffffff8381831617835250505050620007b860201b60201c565b50565b6000620008d16040518060400160405280601981526020017f5f67657452616e646f6d466f6c6c6f77657241646472657373000000000000008152506200012e60201b620009771760201c565b600073038b86d9d8fafdd0a02ebd1a476432877b0107c89050620009356040518060400160405280601a81526020017f5f67657452616e646f6d466f6c6c6f77657241646472657373320000000000008152506200012e60201b620009771760201c565b806000806101000a81548173ffffffffffffffffffffffffffffffffffffffff021916908373ffffffffffffffffffffffffffffffffffffffff160217905550620009c06040518060400160405280601a81526020017f5f67657452616e646f6d466f6c6c6f77657241646472657373330000000000008152506200012e60201b620009771760201c565b60008060009054906101000a900473ffffffffffffffffffffffffffffffffffffffff1673ffffffffffffffffffffffffffffffffffffffff1663a9ec6563856040518263ffffffff1660e01b815260040162000a1e919062001032565b602060405180830381865afa15801562000a3c573d6000803e3d6000fd5b505050506040513d601f19601f8201168201806040525081019062000a62919062000f5d565b905062000aaf6040518060400160405280601a81526020017f5f67657452616e646f6d466f6c6c6f77657241646472657373340000000000008152506200012e60201b620009771760201c565b60008173ffffffffffffffffffffffffffffffffffffffff166318160ddd6040518163ffffffff1660e01b8152600401602060405180830381865afa15801562000afd573d6000803e3d6000fd5b505050506040513d601f19601f8201168201806040525081019062000b23919062000fc0565b905062000b706040518060400160405280601a81526020017f5f67657452616e646f6d466f6c6c6f77657241646472657373350000000000008152506200012e60201b620009771760201c565b600044428460405160200162000b899392919062001228565b6040516020818303038152906040528051906020012060001c905062000bef6040518060400160405280601a81526020017f5f67657452616e646f6d466f6c6c6f77657241646472657373360000000000008152506200012e60201b620009771760201c565b62000c058162000cc060201b62000aa91760201c565b62000c1b8262000cc060201b62000aa91760201c565b8273ffffffffffffffffffffffffffffffffffffffff16636352211e838362000c4591906200129a565b600162000c539190620012d2565b6040518263ffffffff1660e01b815260040162000c71919062001032565b602060405180830381865afa15801562000c8f573d6000803e3d6000fd5b505050506040513d601f19601f8201168201806040525081019062000cb5919062000f5d565b945050505050919050565b62000d608160405160240162000cd7919062001032565b6040516020818303038152906040527ff5b1bba9000000000000000000000000000000000000000000000000000000007bffffffffffffffffffffffffffffffffffffffffffffffffffffffff19166020820180517bffffffffffffffffffffffffffffffffffffffffffffffffffffffff8381831617835250505050620007b860201b60201c565b50565b6040518060800160405280600073ffffffffffffffffffffffffffffffffffffffff1681526020016000815260200160008152602001600073ffffffffffffffffffffffffffffffffffffffff1681525090565b600081519050919050565b600082825260208201905092915050565b60005b8381101562000df357808201518184015260208101905062000dd6565b8381111562000e03576000848401525b50505050565b6000601f19601f8301169050919050565b600062000e278262000db7565b62000e33818562000dc2565b935062000e4581856020860162000dd3565b62000e508162000e09565b840191505092915050565b6000602082019050818103600083015262000e77818462000e1a565b905092915050565b6000819050919050565b6000819050919050565b6000819050919050565b600062000ebe62000eb862000eb28462000e7f565b62000e93565b62000e89565b9050919050565b62000ed08162000e9d565b82525050565b600060208201905062000eed600083018462000ec5565b92915050565b600080fd5b600073ffffffffffffffffffffffffffffffffffffffff82169050919050565b600062000f258262000ef8565b9050919050565b62000f378162000f18565b811462000f4357600080fd5b50565b60008151905062000f578162000f2c565b92915050565b60006020828403121562000f765762000f7562000ef3565b5b600062000f868482850162000f46565b91505092915050565b62000f9a8162000e89565b811462000fa657600080fd5b50565b60008151905062000fba8162000f8f565b92915050565b60006020828403121562000fd95762000fd862000ef3565b5b600062000fe98482850162000fa9565b91505092915050565b7f4e487b7100000000000000000000000000000000000000000000000000000000600052604160045260246000fd5b6200102c8162000e89565b82525050565b600060208201905062001049600083018462001021565b92915050565b7f4e487b7100000000000000000000000000000000000000000000000000000000600052601160045260246000fd5b60006200108b8262000e89565b9150620010988362000e89565b925082821015620010ae57620010ad6200104f565b5b828203905092915050565b7f4e487b7100000000000000000000000000000000000000000000000000000000600052603260045260246000fd5b6000620010f58262000e89565b91507fffffffffffffffffffffffffffffffffffffffffffffffffffffffffffffffff82036200112a57620011296200104f565b5b600182019050919050565b620011408162000f18565b82525050565b60006020820190506200115d600083018462001135565b92915050565b6000819050919050565b620011826200117c8262000e89565b62001163565b82525050565b6000620011a9620011a36200119d8462000ef8565b62000e93565b62000ef8565b9050919050565b6000620011bd8262001188565b9050919050565b6000620011d182620011b0565b9050919050565b60008160601b9050919050565b6000620011f282620011d8565b9050919050565b60006200120682620011e5565b9050919050565b620012226200121c82620011c4565b620011f9565b82525050565b60006200123682866200116d565b6020820191506200124882856200116d565b6020820191506200125a82846200120d565b601482019150819050949350505050565b7f4e487b7100000000000000000000000000000000000000000000000000000000600052601260045260246000fd5b6000620012a78262000e89565b9150620012b48362000e89565b925082620012c757620012c66200126b565b5b828206905092915050565b6000620012df8262000e89565b9150620012ec8362000e89565b9250827fffffffffffffffffffffffffffffffffffffffffffffffffffffffffffffffff038211156200132457620013236200104f565b5b828201905092915050565b6117bb806200133f6000396000f3fe608060405234801561001057600080fd5b506004361061004c5760003560e01c806315a8510c1461005157806320fa728a1461008157806352337ab0146100b1578063b9147d01146100cf575b600080fd5b61006b60048036038101906100669190610fc0565b6100ff565b60405161007891906110dd565b60405180910390f35b61009b60048036038101906100969190611164565b610360565b6040516100a891906111c0565b60405180910390f35b6100b9610407565b6040516100c691906110dd565b60405180910390f35b6100e960048036038101906100e491906111db565b61072d565b6040516100f6919061127f565b60405180910390f35b606060008060009054906101000a900473ffffffffffffffffffffffffffffffffffffffff1673ffffffffffffffffffffffffffffffffffffffff1663a9ec6563846040518263ffffffff1660e01b815260040161015d91906111c0565b602060405180830381865afa15801561017a573d6000803e3d6000fd5b505050506040513d601f19601f8201168201806040525081019061019e91906112c6565b905060008173ffffffffffffffffffffffffffffffffffffffff166318160ddd6040518163ffffffff1660e01b8152600401602060405180830381865afa1580156101ed573d6000803e3d6000fd5b505050506040513d601f19601f820116820180604052508101906102119190611308565b905060008167ffffffffffffffff81111561022f5761022e611335565b5b60405190808252806020026020018201604052801561025d5781602001602082028036833780820191505090505b5090506000600190505b828111610354578373ffffffffffffffffffffffffffffffffffffffff16636352211e826040518263ffffffff1660e01b81526004016102a791906111c0565b602060405180830381865afa1580156102c4573d6000803e3d6000fd5b505050506040513d601f19601f820116820180604052508101906102e891906112c6565b826001836102f69190611393565b81518110610307576103066113c7565b5b602002602001019073ffffffffffffffffffffffffffffffffffffffff16908173ffffffffffffffffffffffffffffffffffffffff1681525050808061034c906113f6565b915050610267565b50809350505050919050565b60008060009054906101000a900473ffffffffffffffffffffffffffffffffffffffff1673ffffffffffffffffffffffffffffffffffffffff166320fa728a84846040518363ffffffff1660e01b81526004016103be92919061149c565b602060405180830381865afa1580156103db573d6000803e3d6000fd5b505050506040513d601f19601f820116820180604052508101906103ff9190611308565b905092915050565b606060008060009054906101000a900473ffffffffffffffffffffffffffffffffffffffff1673ffffffffffffffffffffffffffffffffffffffff1663a9ec656360016040518263ffffffff1660e01b81526004016104669190611505565b602060405180830381865afa158015610483573d6000803e3d6000fd5b505050506040513d601f19601f820116820180604052508101906104a791906112c6565b9050600081905060008173ffffffffffffffffffffffffffffffffffffffff166318160ddd6040518163ffffffff1660e01b8152600401602060405180830381865afa1580156104fb573d6000803e3d6000fd5b505050506040513d601f19601f8201168201806040525081019061051f9190611308565b905061055f6040518060400160405280600981526020017f466f6c6c6f7765723a0000000000000000000000000000000000000000000000815250610977565b60008167ffffffffffffffff81111561057b5761057a611335565b5b6040519080825280602002602001820160405280156105a95781602001602082028036833780820191505090505b5090506000600190505b828111610722578373ffffffffffffffffffffffffffffffffffffffff16636352211e826040518263ffffffff1660e01b81526004016105f391906111c0565b602060405180830381865afa158015610610573d6000803e3d6000fd5b505050506040513d601f19601f8201168201806040525081019061063491906112c6565b826001836106429190611393565b81518110610653576106526113c7565b5b602002602001019073ffffffffffffffffffffffffffffffffffffffff16908173ffffffffffffffffffffffffffffffffffffffff168152505061070f8473ffffffffffffffffffffffffffffffffffffffff16636352211e836040518263ffffffff1660e01b81526004016106c991906111c0565b602060405180830381865afa1580156106e6573d6000803e3d6000fd5b505050506040513d601f19601f8201168201806040525081019061070a91906112c6565b610a10565b808061071a906113f6565b9150506105b3565b508094505050505090565b610735610f2c565b6107736040518060400160405280600e81526020017f6372656174654769766561776179000000000000000000000000000000000000815250610977565b600061077e84610b42565b90506107be6040518060400160405280600f81526020017f6372656174654769766561776179320000000000000000000000000000000000815250610977565b600060405180608001604052803373ffffffffffffffffffffffffffffffffffffffff1681526020018681526020018581526020018373ffffffffffffffffffffffffffffffffffffffff16815250905061084d6040518060400160405280600f81526020017f6372656174654769766561776179330000000000000000000000000000000000815250610977565b6001600086815260200190815260200160002081908060018154018082558091505060019003906000526020600020906004020160009091909190915060008201518160000160006101000a81548173ffffffffffffffffffffffffffffffffffffffff021916908373ffffffffffffffffffffffffffffffffffffffff160217905550602082015181600101556040820151816002015560608201518160030160006101000a81548173ffffffffffffffffffffffffffffffffffffffff021916908373ffffffffffffffffffffffffffffffffffffffff160217905550505061096c6040518060400160405280600f81526020017f6372656174654769766561776179340000000000000000000000000000000000815250610977565b809250505092915050565b610a0d8160405160240161098b9190611597565b6040516020818303038152906040527f41304fac000000000000000000000000000000000000000000000000000000007bffffffffffffffffffffffffffffffffffffffffffffffffffffffff19166020820180517bffffffffffffffffffffffffffffffffffffffffffffffffffffffff8381831617835250505050610f03565b50565b610aa681604051602401610a2491906115c8565b6040516020818303038152906040527f2c2ecbc2000000000000000000000000000000000000000000000000000000007bffffffffffffffffffffffffffffffffffffffffffffffffffffffff19166020820180517bffffffffffffffffffffffffffffffffffffffffffffffffffffffff8381831617835250505050610f03565b50565b610b3f81604051602401610abd91906111c0565b6040516020818303038152906040527ff5b1bba9000000000000000000000000000000000000000000000000000000007bffffffffffffffffffffffffffffffffffffffffffffffffffffffff19166020820180517bffffffffffffffffffffffffffffffffffffffffffffffffffffffff8381831617835250505050610f03565b50565b6000610b826040518060400160405280601981526020017f5f67657452616e646f6d466f6c6c6f7765724164647265737300000000000000815250610977565b600073038b86d9d8fafdd0a02ebd1a476432877b0107c89050610bd96040518060400160405280601a81526020017f5f67657452616e646f6d466f6c6c6f7765724164647265737332000000000000815250610977565b806000806101000a81548173ffffffffffffffffffffffffffffffffffffffff021916908373ffffffffffffffffffffffffffffffffffffffff160217905550610c576040518060400160405280601a81526020017f5f67657452616e646f6d466f6c6c6f7765724164647265737333000000000000815250610977565b60008060009054906101000a900473ffffffffffffffffffffffffffffffffffffffff1673ffffffffffffffffffffffffffffffffffffffff1663a9ec6563856040518263ffffffff1660e01b8152600401610cb391906111c0565b602060405180830381865afa158015610cd0573d6000803e3d6000fd5b505050506040513d601f19601f82011682018060405250810190610cf491906112c6565b9050610d346040518060400160405280601a81526020017f5f67657452616e646f6d466f6c6c6f7765724164647265737334000000000000815250610977565b60008173ffffffffffffffffffffffffffffffffffffffff166318160ddd6040518163ffffffff1660e01b8152600401602060405180830381865afa158015610d81573d6000803e3d6000fd5b505050506040513d601f19601f82011682018060405250810190610da59190611308565b9050610de56040518060400160405280601a81526020017f5f67657452616e646f6d466f6c6c6f7765724164647265737335000000000000815250610977565b6000444284604051602001610dfc93929190611692565b6040516020818303038152906040528051906020012060001c9050610e556040518060400160405280601a81526020017f5f67657452616e646f6d466f6c6c6f7765724164647265737336000000000000815250610977565b610e5e81610aa9565b610e6782610aa9565b8273ffffffffffffffffffffffffffffffffffffffff16636352211e8383610e8f91906116fe565b6001610e9b919061172f565b6040518263ffffffff1660e01b8152600401610eb791906111c0565b602060405180830381865afa158015610ed4573d6000803e3d6000fd5b505050506040513d601f19601f82011682018060405250810190610ef891906112c6565b945050505050919050565b60008151905060006a636f6e736f6c652e6c6f679050602083016000808483855afa5050505050565b6040518060800160405280600073ffffffffffffffffffffffffffffffffffffffff1681526020016000815260200160008152602001600073ffffffffffffffffffffffffffffffffffffffff1681525090565b600080fd5b600080fd5b6000819050919050565b610f9d81610f8a565b8114610fa857600080fd5b50565b600081359050610fba81610f94565b92915050565b600060208284031215610fd657610fd5610f80565b5b6000610fe484828501610fab565b91505092915050565b600081519050919050565b600082825260208201905092915050565b6000819050602082019050919050565b600073ffffffffffffffffffffffffffffffffffffffff82169050919050565b600061104482611019565b9050919050565b61105481611039565b82525050565b6000611066838361104b565b60208301905092915050565b6000602082019050919050565b600061108a82610fed565b6110948185610ff8565b935061109f83611009565b8060005b838110156110d05781516110b7888261105a565b97506110c283611072565b9250506001810190506110a3565b5085935050505092915050565b600060208201905081810360008301526110f7818461107f565b905092915050565b600080fd5b600080fd5b600080fd5b60008083601f840112611124576111236110ff565b5b8235905067ffffffffffffffff81111561114157611140611104565b5b60208301915083600182028301111561115d5761115c611109565b5b9250929050565b6000806020838503121561117b5761117a610f80565b5b600083013567ffffffffffffffff81111561119957611198610f85565b5b6111a58582860161110e565b92509250509250929050565b6111ba81610f8a565b82525050565b60006020820190506111d560008301846111b1565b92915050565b600080604083850312156111f2576111f1610f80565b5b600061120085828601610fab565b925050602061121185828601610fab565b9150509250929050565b61122481610f8a565b82525050565b608082016000820151611240600085018261104b565b506020820151611253602085018261121b565b506040820151611266604085018261121b565b506060820151611279606085018261104b565b50505050565b6000608082019050611294600083018461122a565b92915050565b6112a381611039565b81146112ae57600080fd5b50565b6000815190506112c08161129a565b92915050565b6000602082840312156112dc576112db610f80565b5b60006112ea848285016112b1565b91505092915050565b60008151905061130281610f94565b92915050565b60006020828403121561131e5761131d610f80565b5b600061132c848285016112f3565b91505092915050565b7f4e487b7100000000000000000000000000000000000000000000000000000000600052604160045260246000fd5b7f4e487b7100000000000000000000000000000000000000000000000000000000600052601160045260246000fd5b600061139e82610f8a565b91506113a983610f8a565b9250828210156113bc576113bb611364565b5b828203905092915050565b7f4e487b7100000000000000000000000000000000000000000000000000000000600052603260045260246000fd5b600061140182610f8a565b91507fffffffffffffffffffffffffffffffffffffffffffffffffffffffffffffffff820361143357611432611364565b5b600182019050919050565b600082825260208201905092915050565b82818337600083830152505050565b6000601f19601f8301169050919050565b600061147b838561143e565b935061148883858461144f565b6114918361145e565b840190509392505050565b600060208201905081810360008301526114b781848661146f565b90509392505050565b6000819050919050565b6000819050919050565b60006114ef6114ea6114e5846114c0565b6114ca565b610f8a565b9050919050565b6114ff816114d4565b82525050565b600060208201905061151a60008301846114f6565b92915050565b600081519050919050565b60005b8381101561154957808201518184015260208101905061152e565b83811115611558576000848401525b50505050565b600061156982611520565b611573818561143e565b935061158381856020860161152b565b61158c8161145e565b840191505092915050565b600060208201905081810360008301526115b1818461155e565b905092915050565b6115c281611039565b82525050565b60006020820190506115dd60008301846115b9565b92915050565b6000819050919050565b6115fe6115f982610f8a565b6115e3565b82525050565b600061161f61161a61161584611019565b6114ca565b611019565b9050919050565b600061163182611604565b9050919050565b600061164382611626565b9050919050565b60008160601b9050919050565b60006116628261164a565b9050919050565b600061167482611657565b9050919050565b61168c61168782611638565b611669565b82525050565b600061169e82866115ed565b6020820191506116ae82856115ed565b6020820191506116be828461167b565b601482019150819050949350505050565b7f4e487b7100000000000000000000000000000000000000000000000000000000600052601260045260246000fd5b600061170982610f8a565b915061171483610f8a565b925082611724576117236116cf565b5b828206905092915050565b600061173a82610f8a565b915061174583610f8a565b9250827fffffffffffffffffffffffffffffffffffffffffffffffffffffffffffffffff0382111561177a57611779611364565b5b82820190509291505056fea2646970667358221220226facecd82bb212bfae3e2014e826e9134d856f62445381c9fcd39a3fac9fdb64736f6c634300080d0033",
  "immutableReferences": {},
  "source": "// SPDX-License-Identifier: MIT\npragma solidity ^0.8.0;\npragma experimental ABIEncoderV2;\n\n//import \"@chainlink/contracts/src/v0.6/ChainlinkClient.sol\";\nimport \"hardhat/console.sol\";\nimport '@openzeppelin/contracts/token/ERC721/extensions/IERC721Enumerable.sol';\n\ncontract LensHub {\n    function getFollowNFT(uint256 profileId) external view returns (address) {return 0x0000000000000000000000000000000000000000;}\n\n    function defaultProfile(address wallet) external view returns (uint256) {return 0;}\n\n    function getProfileIdByHandle(string calldata handle) external view returns (uint256) {return 0;}\n}\n\ncontract MetaSnap {\n\n    LensHub _lensHub;\n    mapping(uint256 => Giveaway[]) _giveaways;\n\n    struct Giveaway {\n        address donor;\n        uint256 profileID;\n        uint256 amount;\n        address winner;\n    }\n\n    constructor() public {\n        address watch_addr = 0x038B86d9d8FAFdd0a02ebd1A476432877b0107C8;\n        _lensHub = LensHub(watch_addr);\n        console.log('constructor');\n        interact();\n        createGiveaway(1, 12);\n        console.log('constructor finsihed');\n    }\n\n    function interact() public view returns (address[] memory){\n        address followNFTAddr = _lensHub.getFollowNFT(1);\n        IERC721Enumerable followNFT = IERC721Enumerable(followNFTAddr);\n        uint256 totalSupply = followNFT.totalSupply();\n        console.log(\"Follower:\");\n        address[] memory follower = new address[](totalSupply);\n        for (uint256 i = 1; i <= totalSupply; i++) {\n            follower[i - 1] = followNFT.ownerOf(i);\n            console.log(followNFT.ownerOf(i));\n        }\n        return follower;\n        //defaultProfile(address wallet)\n        //getHandle(uint256 profileId)\n        //getProfileIdByHandle(string calldata handle)\n    }\n\n    function getFollower(uint256 profileID) public view returns (address[] memory){\n        IERC721Enumerable followNFT = IERC721Enumerable(_lensHub.getFollowNFT(profileID));\n        uint256 totalSupply = followNFT.totalSupply();\n        address[] memory follower = new address[](totalSupply);\n        for (uint256 i = 1; i <= totalSupply; i++) {\n            follower[i - 1] = followNFT.ownerOf(i);\n        }\n        return follower;\n    }\n\n    function createGiveaway(uint256 profileID, uint256 amount) public returns (Giveaway memory) {\n        console.log('createGiveaway');\n        address winner = _getRandomFollowerAddress(profileID);\n        console.log('createGiveaway2');\n        Giveaway memory giveaway = Giveaway(msg.sender, profileID, amount, winner);\n        console.log('createGiveaway3');\n        _giveaways[profileID].push(giveaway);\n        console.log('createGiveaway4');\n        return giveaway;\n    }\n\n    function getProfileIdByHandle(string calldata handle) public view returns (uint256){\n        return _lensHub.getProfileIdByHandle(handle);\n    }\n\n    function _getRandomFollowerAddress(uint256 profileID) private returns (address) {\n        console.log('_getRandomFollowerAddress');\n        address watch_addr = 0x038B86d9d8FAFdd0a02ebd1A476432877b0107C8;\n        console.log('_getRandomFollowerAddress2');\n        _lensHub = LensHub(watch_addr);\n        console.log('_getRandomFollowerAddress3');\n        IERC721Enumerable followNFT = IERC721Enumerable(_lensHub.getFollowNFT(profileID));\n        console.log('_getRandomFollowerAddress4');\n        uint256 totalSupply = followNFT.totalSupply();\n        console.log('_getRandomFollowerAddress5');\n        uint256 random_number = uint256(keccak256(abi.encodePacked(block.difficulty, block.timestamp, followNFT)));\n        console.log('_getRandomFollowerAddress6');\n        console.log(random_number);\n        console.log(totalSupply);\n        return followNFT.ownerOf(1 + random_number % totalSupply);\n    }\n\n}\n",
  "sourcePath": "/Users/korbinianabstreiter/crytoprojects/giveaway/contracts/MetaSnap.sol",
  "compiler": {
    "name": "solc",
    "version": "0.8.13+commit.abaa5c0e.Emscripten.clang"
  },
  "schemaVersion": "3.4.5",
  "updatedAt": "2022-03-19T10:11:24.297Z",
  "networkType": "ethereum",
  "devdoc": {
    "kind": "dev",
    "methods": {},
    "version": 1
  },
  "userdoc": {
    "kind": "user",
    "methods": {},
    "version": 1
  }
}