{
  "contractName": "MetaSnap",
  "abi": [
    {
      "inputs": [],
      "stateMutability": "nonpayable",
      "type": "constructor"
    },
    {
      "inputs": [],
      "name": "interact",
      "outputs": [
        {
          "internalType": "address[]",
          "name": "",
          "type": "address[]"
        }
      ],
      "stateMutability": "view",
      "type": "function",
      "constant": true
    },
    {
      "inputs": [
        {
          "internalType": "uint256",
          "name": "profileID",
          "type": "uint256"
        }
      ],
      "name": "getFollower",
      "outputs": [
        {
          "internalType": "address[]",
          "name": "",
          "type": "address[]"
        }
      ],
      "stateMutability": "view",
      "type": "function",
      "constant": true
    },
    {
      "inputs": [
        {
          "internalType": "uint256",
          "name": "profileID",
          "type": "uint256"
        },
        {
          "internalType": "uint256",
          "name": "amount",
          "type": "uint256"
        }
      ],
      "name": "createGiveaway",
      "outputs": [
        {
          "components": [
            {
              "internalType": "address",
              "name": "donor",
              "type": "address"
            },
            {
              "internalType": "uint256",
              "name": "profileID",
              "type": "uint256"
            },
            {
              "internalType": "uint256",
              "name": "amount",
              "type": "uint256"
            },
            {
              "internalType": "address",
              "name": "winner",
              "type": "address"
            }
          ],
          "internalType": "struct MetaSnap.Giveaway[]",
          "name": "",
          "type": "tuple[]"
        }
      ],
      "stateMutability": "nonpayable",
      "type": "function"
    },
    {
      "inputs": [
        {
          "internalType": "string",
          "name": "handle",
          "type": "string"
        }
      ],
      "name": "getProfileIdByHandle",
      "outputs": [
        {
          "internalType": "uint256",
          "name": "",
          "type": "uint256"
        }
      ],
      "stateMutability": "view",
      "type": "function",
      "constant": true
    }
  ],
  "bytecode": "0x60806040523480156200001157600080fd5b50600073038b86d9d8fafdd0a02ebd1a476432877b0107c89050806000806101000a81548173ffffffffffffffffffffffffffffffffffffffff021916908373ffffffffffffffffffffffffffffffffffffffff160217905550620000b66040518060400160405280600b81526020017f636f6e7374727563746f720000000000000000000000000000000000000000008152506200014360201b62000aaf1760201c565b620000c6620001e660201b60201c565b50620000db6001600c6200054560201b60201c565b50620000f06001600d6200054560201b60201c565b506200013c6040518060400160405280601481526020017f636f6e7374727563746f722066696e73696865640000000000000000000000008152506200014360201b62000aaf1760201c565b506200138f565b620001e3816040516024016200015a919062000f6e565b6040516020818303038152906040527f41304fac000000000000000000000000000000000000000000000000000000007bffffffffffffffffffffffffffffffffffffffffffffffffffffffff19166020820180517bffffffffffffffffffffffffffffffffffffffffffffffffffffffff83818316178352505050506200090560201b60201c565b50565b606060008060009054906101000a900473ffffffffffffffffffffffffffffffffffffffff1673ffffffffffffffffffffffffffffffffffffffff1663a9ec656360016040518263ffffffff1660e01b815260040162000247919062000fe9565b602060405180830381865afa15801562000265573d6000803e3d6000fd5b505050506040513d601f19601f820116820180604052508101906200028b919062001070565b9050600081905060008173ffffffffffffffffffffffffffffffffffffffff166318160ddd6040518163ffffffff1660e01b8152600401602060405180830381865afa158015620002e0573d6000803e3d6000fd5b505050506040513d601f19601f82011682018060405250810190620003069190620010d3565b9050620003536040518060400160405280600981526020017f466f6c6c6f7765723a00000000000000000000000000000000000000000000008152506200014360201b62000aaf1760201c565b60008167ffffffffffffffff81111562000372576200037162001105565b5b604051908082528060200260200182016040528015620003a15781602001602082028036833780820191505090505b5090506000600190505b8281116200053a578373ffffffffffffffffffffffffffffffffffffffff16636352211e826040518263ffffffff1660e01b8152600401620003ee919062001145565b602060405180830381865afa1580156200040c573d6000803e3d6000fd5b505050506040513d601f19601f8201168201806040525081019062000432919062001070565b8260018362000442919062001191565b81518110620004565762000455620011cc565b5b602002602001019073ffffffffffffffffffffffffffffffffffffffff16908173ffffffffffffffffffffffffffffffffffffffff1681525050620005248473ffffffffffffffffffffffffffffffffffffffff16636352211e836040518263ffffffff1660e01b8152600401620004cf919062001145565b602060405180830381865afa158015620004ed573d6000803e3d6000fd5b505050506040513d601f19601f8201168201806040525081019062000513919062001070565b6200092e60201b62000b481760201c565b80806200053190620011fb565b915050620003ab565b508094505050505090565b6060620005926040518060400160405280600e81526020017f63726561746547697665617761790000000000000000000000000000000000008152506200014360201b62000aaf1760201c565b6000620005a584620009d160201b60201c565b9050620005f26040518060400160405280600f81526020017f63726561746547697665617761793200000000000000000000000000000000008152506200014360201b62000aaf1760201c565b600060405180608001604052803373ffffffffffffffffffffffffffffffffffffffff168152602001868152602001600160008881526020019081526020016000208054905081526020018373ffffffffffffffffffffffffffffffffffffffff168152509050620006a46040518060400160405280600f81526020017f63726561746547697665617761793300000000000000000000000000000000008152506200014360201b62000aaf1760201c565b6001600086815260200190815260200160002081908060018154018082558091505060019003906000526020600020906004020160009091909190915060008201518160000160006101000a81548173ffffffffffffffffffffffffffffffffffffffff021916908373ffffffffffffffffffffffffffffffffffffffff160217905550602082015181600101556040820151816002015560608201518160030160006101000a81548173ffffffffffffffffffffffffffffffffffffffff021916908373ffffffffffffffffffffffffffffffffffffffff1602179055505050620007d06040518060400160405280600f81526020017f63726561746547697665617761793400000000000000000000000000000000008152506200014360201b62000aaf1760201c565b60016000868152602001908152602001600020805480602002602001604051908101604052809291908181526020016000905b82821015620008f757838290600052602060002090600402016040518060800160405290816000820160009054906101000a900473ffffffffffffffffffffffffffffffffffffffff1673ffffffffffffffffffffffffffffffffffffffff1673ffffffffffffffffffffffffffffffffffffffff16815260200160018201548152602001600282015481526020016003820160009054906101000a900473ffffffffffffffffffffffffffffffffffffffff1673ffffffffffffffffffffffffffffffffffffffff1673ffffffffffffffffffffffffffffffffffffffff16815250508152602001906001019062000803565b505050509250505092915050565b60008151905060006a636f6e736f6c652e6c6f679050602083016000808483855afa5050505050565b620009ce8160405160240162000945919062001259565b6040516020818303038152906040527f2c2ecbc2000000000000000000000000000000000000000000000000000000007bffffffffffffffffffffffffffffffffffffffffffffffffffffffff19166020820180517bffffffffffffffffffffffffffffffffffffffffffffffffffffffff83818316178352505050506200090560201b60201c565b50565b600062000a1e6040518060400160405280601981526020017f5f67657452616e646f6d466f6c6c6f77657241646472657373000000000000008152506200014360201b62000aaf1760201c565b600073038b86d9d8fafdd0a02ebd1a476432877b0107c8905062000a826040518060400160405280601a81526020017f5f67657452616e646f6d466f6c6c6f77657241646472657373320000000000008152506200014360201b62000aaf1760201c565b806000806101000a81548173ffffffffffffffffffffffffffffffffffffffff021916908373ffffffffffffffffffffffffffffffffffffffff16021790555062000b0d6040518060400160405280601a81526020017f5f67657452616e646f6d466f6c6c6f77657241646472657373330000000000008152506200014360201b62000aaf1760201c565b60008060009054906101000a900473ffffffffffffffffffffffffffffffffffffffff1673ffffffffffffffffffffffffffffffffffffffff1663a9ec6563856040518263ffffffff1660e01b815260040162000b6b919062001145565b602060405180830381865afa15801562000b89573d6000803e3d6000fd5b505050506040513d601f19601f8201168201806040525081019062000baf919062001070565b905062000bfc6040518060400160405280601a81526020017f5f67657452616e646f6d466f6c6c6f77657241646472657373340000000000008152506200014360201b62000aaf1760201c565b60008173ffffffffffffffffffffffffffffffffffffffff166318160ddd6040518163ffffffff1660e01b8152600401602060405180830381865afa15801562000c4a573d6000803e3d6000fd5b505050506040513d601f19601f8201168201806040525081019062000c709190620010d3565b905062000cbd6040518060400160405280601a81526020017f5f67657452616e646f6d466f6c6c6f77657241646472657373350000000000008152506200014360201b62000aaf1760201c565b6000444260405160200162000cd49291906200129b565b6040516020818303038152906040528051906020012060001c905062000d3a6040518060400160405280601a81526020017f5f67657452616e646f6d466f6c6c6f77657241646472657373360000000000008152506200014360201b62000aaf1760201c565b62000d508162000e2760201b62000be11760201c565b62000d668262000e2760201b62000be11760201c565b6000828262000d769190620012fa565b600162000d84919062001332565b905062000d9c8162000e2760201b62000be11760201c565b8373ffffffffffffffffffffffffffffffffffffffff16636352211e826040518263ffffffff1660e01b815260040162000dd7919062001145565b602060405180830381865afa15801562000df5573d6000803e3d6000fd5b505050506040513d601f19601f8201168201806040525081019062000e1b919062001070565b95505050505050919050565b62000ec78160405160240162000e3e919062001145565b6040516020818303038152906040527ff5b1bba9000000000000000000000000000000000000000000000000000000007bffffffffffffffffffffffffffffffffffffffffffffffffffffffff19166020820180517bffffffffffffffffffffffffffffffffffffffffffffffffffffffff83818316178352505050506200090560201b60201c565b50565b600081519050919050565b600082825260208201905092915050565b60005b8381101562000f0657808201518184015260208101905062000ee9565b8381111562000f16576000848401525b50505050565b6000601f19601f8301169050919050565b600062000f3a8262000eca565b62000f46818562000ed5565b935062000f5881856020860162000ee6565b62000f638162000f1c565b840191505092915050565b6000602082019050818103600083015262000f8a818462000f2d565b905092915050565b6000819050919050565b6000819050919050565b6000819050919050565b600062000fd162000fcb62000fc58462000f92565b62000fa6565b62000f9c565b9050919050565b62000fe38162000fb0565b82525050565b600060208201905062001000600083018462000fd8565b92915050565b600080fd5b600073ffffffffffffffffffffffffffffffffffffffff82169050919050565b600062001038826200100b565b9050919050565b6200104a816200102b565b81146200105657600080fd5b50565b6000815190506200106a816200103f565b92915050565b60006020828403121562001089576200108862001006565b5b6000620010998482850162001059565b91505092915050565b620010ad8162000f9c565b8114620010b957600080fd5b50565b600081519050620010cd81620010a2565b92915050565b600060208284031215620010ec57620010eb62001006565b5b6000620010fc84828501620010bc565b91505092915050565b7f4e487b7100000000000000000000000000000000000000000000000000000000600052604160045260246000fd5b6200113f8162000f9c565b82525050565b60006020820190506200115c600083018462001134565b92915050565b7f4e487b7100000000000000000000000000000000000000000000000000000000600052601160045260246000fd5b60006200119e8262000f9c565b9150620011ab8362000f9c565b925082821015620011c157620011c062001162565b5b828203905092915050565b7f4e487b7100000000000000000000000000000000000000000000000000000000600052603260045260246000fd5b6000620012088262000f9c565b91507fffffffffffffffffffffffffffffffffffffffffffffffffffffffffffffffff82036200123d576200123c62001162565b5b600182019050919050565b62001253816200102b565b82525050565b600060208201905062001270600083018462001248565b92915050565b6000819050919050565b620012956200128f8262000f9c565b62001276565b82525050565b6000620012a9828562001280565b602082019150620012bb828462001280565b6020820191508190509392505050565b7f4e487b7100000000000000000000000000000000000000000000000000000000600052601260045260246000fd5b6000620013078262000f9c565b9150620013148362000f9c565b925082620013275762001326620012cb565b5b828206905092915050565b60006200133f8262000f9c565b91506200134c8362000f9c565b9250827fffffffffffffffffffffffffffffffffffffffffffffffffffffffffffffffff0382111562001384576200138362001162565b5b828201905092915050565b6118c3806200139f6000396000f3fe608060405234801561001057600080fd5b506004361061004c5760003560e01c806315a8510c1461005157806320fa728a1461008157806352337ab0146100b1578063b9147d01146100cf575b600080fd5b61006b600480360381019061006691906110b1565b6100ff565b60405161007891906111ce565b60405180910390f35b61009b60048036038101906100969190611255565b610360565b6040516100a891906112b1565b60405180910390f35b6100b9610407565b6040516100c691906111ce565b60405180910390f35b6100e960048036038101906100e491906112cc565b61072d565b6040516100f6919061141f565b60405180910390f35b606060008060009054906101000a900473ffffffffffffffffffffffffffffffffffffffff1673ffffffffffffffffffffffffffffffffffffffff1663a9ec6563846040518263ffffffff1660e01b815260040161015d91906112b1565b602060405180830381865afa15801561017a573d6000803e3d6000fd5b505050506040513d601f19601f8201168201806040525081019061019e919061146d565b905060008173ffffffffffffffffffffffffffffffffffffffff166318160ddd6040518163ffffffff1660e01b8152600401602060405180830381865afa1580156101ed573d6000803e3d6000fd5b505050506040513d601f19601f8201168201806040525081019061021191906114af565b905060008167ffffffffffffffff81111561022f5761022e6114dc565b5b60405190808252806020026020018201604052801561025d5781602001602082028036833780820191505090505b5090506000600190505b828111610354578373ffffffffffffffffffffffffffffffffffffffff16636352211e826040518263ffffffff1660e01b81526004016102a791906112b1565b602060405180830381865afa1580156102c4573d6000803e3d6000fd5b505050506040513d601f19601f820116820180604052508101906102e8919061146d565b826001836102f6919061153a565b815181106103075761030661156e565b5b602002602001019073ffffffffffffffffffffffffffffffffffffffff16908173ffffffffffffffffffffffffffffffffffffffff1681525050808061034c9061159d565b915050610267565b50809350505050919050565b60008060009054906101000a900473ffffffffffffffffffffffffffffffffffffffff1673ffffffffffffffffffffffffffffffffffffffff166320fa728a84846040518363ffffffff1660e01b81526004016103be929190611643565b602060405180830381865afa1580156103db573d6000803e3d6000fd5b505050506040513d601f19601f820116820180604052508101906103ff91906114af565b905092915050565b606060008060009054906101000a900473ffffffffffffffffffffffffffffffffffffffff1673ffffffffffffffffffffffffffffffffffffffff1663a9ec656360016040518263ffffffff1660e01b815260040161046691906116ac565b602060405180830381865afa158015610483573d6000803e3d6000fd5b505050506040513d601f19601f820116820180604052508101906104a7919061146d565b9050600081905060008173ffffffffffffffffffffffffffffffffffffffff166318160ddd6040518163ffffffff1660e01b8152600401602060405180830381865afa1580156104fb573d6000803e3d6000fd5b505050506040513d601f19601f8201168201806040525081019061051f91906114af565b905061055f6040518060400160405280600981526020017f466f6c6c6f7765723a0000000000000000000000000000000000000000000000815250610aaf565b60008167ffffffffffffffff81111561057b5761057a6114dc565b5b6040519080825280602002602001820160405280156105a95781602001602082028036833780820191505090505b5090506000600190505b828111610722578373ffffffffffffffffffffffffffffffffffffffff16636352211e826040518263ffffffff1660e01b81526004016105f391906112b1565b602060405180830381865afa158015610610573d6000803e3d6000fd5b505050506040513d601f19601f82011682018060405250810190610634919061146d565b82600183610642919061153a565b815181106106535761065261156e565b5b602002602001019073ffffffffffffffffffffffffffffffffffffffff16908173ffffffffffffffffffffffffffffffffffffffff168152505061070f8473ffffffffffffffffffffffffffffffffffffffff16636352211e836040518263ffffffff1660e01b81526004016106c991906112b1565b602060405180830381865afa1580156106e6573d6000803e3d6000fd5b505050506040513d601f19601f8201168201806040525081019061070a919061146d565b610b48565b808061071a9061159d565b9150506105b3565b508094505050505090565b606061076d6040518060400160405280600e81526020017f6372656174654769766561776179000000000000000000000000000000000000815250610aaf565b600061077884610c7a565b90506107b86040518060400160405280600f81526020017f6372656174654769766561776179320000000000000000000000000000000000815250610aaf565b600060405180608001604052803373ffffffffffffffffffffffffffffffffffffffff168152602001868152602001600160008881526020019081526020016000208054905081526020018373ffffffffffffffffffffffffffffffffffffffff16815250905061085d6040518060400160405280600f81526020017f6372656174654769766561776179330000000000000000000000000000000000815250610aaf565b6001600086815260200190815260200160002081908060018154018082558091505060019003906000526020600020906004020160009091909190915060008201518160000160006101000a81548173ffffffffffffffffffffffffffffffffffffffff021916908373ffffffffffffffffffffffffffffffffffffffff160217905550602082015181600101556040820151816002015560608201518160030160006101000a81548173ffffffffffffffffffffffffffffffffffffffff021916908373ffffffffffffffffffffffffffffffffffffffff160217905550505061097c6040518060400160405280600f81526020017f6372656174654769766561776179340000000000000000000000000000000000815250610aaf565b60016000868152602001908152602001600020805480602002602001604051908101604052809291908181526020016000905b82821015610aa157838290600052602060002090600402016040518060800160405290816000820160009054906101000a900473ffffffffffffffffffffffffffffffffffffffff1673ffffffffffffffffffffffffffffffffffffffff1673ffffffffffffffffffffffffffffffffffffffff16815260200160018201548152602001600282015481526020016003820160009054906101000a900473ffffffffffffffffffffffffffffffffffffffff1673ffffffffffffffffffffffffffffffffffffffff1673ffffffffffffffffffffffffffffffffffffffff1681525050815260200190600101906109af565b505050509250505092915050565b610b4581604051602401610ac3919061173e565b6040516020818303038152906040527f41304fac000000000000000000000000000000000000000000000000000000007bffffffffffffffffffffffffffffffffffffffffffffffffffffffff19166020820180517bffffffffffffffffffffffffffffffffffffffffffffffffffffffff8381831617835250505050611048565b50565b610bde81604051602401610b5c919061176f565b6040516020818303038152906040527f2c2ecbc2000000000000000000000000000000000000000000000000000000007bffffffffffffffffffffffffffffffffffffffffffffffffffffffff19166020820180517bffffffffffffffffffffffffffffffffffffffffffffffffffffffff8381831617835250505050611048565b50565b610c7781604051602401610bf591906112b1565b6040516020818303038152906040527ff5b1bba9000000000000000000000000000000000000000000000000000000007bffffffffffffffffffffffffffffffffffffffffffffffffffffffff19166020820180517bffffffffffffffffffffffffffffffffffffffffffffffffffffffff8381831617835250505050611048565b50565b6000610cba6040518060400160405280601981526020017f5f67657452616e646f6d466f6c6c6f7765724164647265737300000000000000815250610aaf565b600073038b86d9d8fafdd0a02ebd1a476432877b0107c89050610d116040518060400160405280601a81526020017f5f67657452616e646f6d466f6c6c6f7765724164647265737332000000000000815250610aaf565b806000806101000a81548173ffffffffffffffffffffffffffffffffffffffff021916908373ffffffffffffffffffffffffffffffffffffffff160217905550610d8f6040518060400160405280601a81526020017f5f67657452616e646f6d466f6c6c6f7765724164647265737333000000000000815250610aaf565b60008060009054906101000a900473ffffffffffffffffffffffffffffffffffffffff1673ffffffffffffffffffffffffffffffffffffffff1663a9ec6563856040518263ffffffff1660e01b8152600401610deb91906112b1565b602060405180830381865afa158015610e08573d6000803e3d6000fd5b505050506040513d601f19601f82011682018060405250810190610e2c919061146d565b9050610e6c6040518060400160405280601a81526020017f5f67657452616e646f6d466f6c6c6f7765724164647265737334000000000000815250610aaf565b60008173ffffffffffffffffffffffffffffffffffffffff166318160ddd6040518163ffffffff1660e01b8152600401602060405180830381865afa158015610eb9573d6000803e3d6000fd5b505050506040513d601f19601f82011682018060405250810190610edd91906114af565b9050610f1d6040518060400160405280601a81526020017f5f67657452616e646f6d466f6c6c6f7765724164647265737335000000000000815250610aaf565b60004442604051602001610f329291906117ab565b6040516020818303038152906040528051906020012060001c9050610f8b6040518060400160405280601a81526020017f5f67657452616e646f6d466f6c6c6f7765724164647265737336000000000000815250610aaf565b610f9481610be1565b610f9d82610be1565b60008282610fab9190611806565b6001610fb79190611837565b9050610fc281610be1565b8373ffffffffffffffffffffffffffffffffffffffff16636352211e826040518263ffffffff1660e01b8152600401610ffb91906112b1565b602060405180830381865afa158015611018573d6000803e3d6000fd5b505050506040513d601f19601f8201168201806040525081019061103c919061146d565b95505050505050919050565b60008151905060006a636f6e736f6c652e6c6f679050602083016000808483855afa5050505050565b600080fd5b600080fd5b6000819050919050565b61108e8161107b565b811461109957600080fd5b50565b6000813590506110ab81611085565b92915050565b6000602082840312156110c7576110c6611071565b5b60006110d58482850161109c565b91505092915050565b600081519050919050565b600082825260208201905092915050565b6000819050602082019050919050565b600073ffffffffffffffffffffffffffffffffffffffff82169050919050565b60006111358261110a565b9050919050565b6111458161112a565b82525050565b6000611157838361113c565b60208301905092915050565b6000602082019050919050565b600061117b826110de565b61118581856110e9565b9350611190836110fa565b8060005b838110156111c15781516111a8888261114b565b97506111b383611163565b925050600181019050611194565b5085935050505092915050565b600060208201905081810360008301526111e88184611170565b905092915050565b600080fd5b600080fd5b600080fd5b60008083601f840112611215576112146111f0565b5b8235905067ffffffffffffffff811115611232576112316111f5565b5b60208301915083600182028301111561124e5761124d6111fa565b5b9250929050565b6000806020838503121561126c5761126b611071565b5b600083013567ffffffffffffffff81111561128a57611289611076565b5b611296858286016111ff565b92509250509250929050565b6112ab8161107b565b82525050565b60006020820190506112c660008301846112a2565b92915050565b600080604083850312156112e3576112e2611071565b5b60006112f18582860161109c565b92505060206113028582860161109c565b9150509250929050565b600081519050919050565b600082825260208201905092915050565b6000819050602082019050919050565b6113418161107b565b82525050565b60808201600082015161135d600085018261113c565b5060208201516113706020850182611338565b5060408201516113836040850182611338565b506060820151611396606085018261113c565b50505050565b60006113a88383611347565b60808301905092915050565b6000602082019050919050565b60006113cc8261130c565b6113d68185611317565b93506113e183611328565b8060005b838110156114125781516113f9888261139c565b9750611404836113b4565b9250506001810190506113e5565b5085935050505092915050565b6000602082019050818103600083015261143981846113c1565b905092915050565b61144a8161112a565b811461145557600080fd5b50565b60008151905061146781611441565b92915050565b60006020828403121561148357611482611071565b5b600061149184828501611458565b91505092915050565b6000815190506114a981611085565b92915050565b6000602082840312156114c5576114c4611071565b5b60006114d38482850161149a565b91505092915050565b7f4e487b7100000000000000000000000000000000000000000000000000000000600052604160045260246000fd5b7f4e487b7100000000000000000000000000000000000000000000000000000000600052601160045260246000fd5b60006115458261107b565b91506115508361107b565b9250828210156115635761156261150b565b5b828203905092915050565b7f4e487b7100000000000000000000000000000000000000000000000000000000600052603260045260246000fd5b60006115a88261107b565b91507fffffffffffffffffffffffffffffffffffffffffffffffffffffffffffffffff82036115da576115d961150b565b5b600182019050919050565b600082825260208201905092915050565b82818337600083830152505050565b6000601f19601f8301169050919050565b600061162283856115e5565b935061162f8385846115f6565b61163883611605565b840190509392505050565b6000602082019050818103600083015261165e818486611616565b90509392505050565b6000819050919050565b6000819050919050565b600061169661169161168c84611667565b611671565b61107b565b9050919050565b6116a68161167b565b82525050565b60006020820190506116c1600083018461169d565b92915050565b600081519050919050565b60005b838110156116f05780820151818401526020810190506116d5565b838111156116ff576000848401525b50505050565b6000611710826116c7565b61171a81856115e5565b935061172a8185602086016116d2565b61173381611605565b840191505092915050565b600060208201905081810360008301526117588184611705565b905092915050565b6117698161112a565b82525050565b60006020820190506117846000830184611760565b92915050565b6000819050919050565b6117a56117a08261107b565b61178a565b82525050565b60006117b78285611794565b6020820191506117c78284611794565b6020820191508190509392505050565b7f4e487b7100000000000000000000000000000000000000000000000000000000600052601260045260246000fd5b60006118118261107b565b915061181c8361107b565b92508261182c5761182b6117d7565b5b828206905092915050565b60006118428261107b565b915061184d8361107b565b9250827fffffffffffffffffffffffffffffffffffffffffffffffffffffffffffffffff038211156118825761188161150b565b5b82820190509291505056fea2646970667358221220cb064343f65c6ef53eff0f1f57fe4b8f4d782e78a8ebbe90ec5e14727940eea264736f6c634300080d0033",
  "immutableReferences": {},
  "source": "// SPDX-License-Identifier: MIT\npragma solidity ^0.8.0;\npragma experimental ABIEncoderV2;\n\n//import \"@chainlink/contracts/src/v0.6/ChainlinkClient.sol\";\nimport \"hardhat/console.sol\";\nimport '@openzeppelin/contracts/token/ERC721/extensions/IERC721Enumerable.sol';\n\ncontract LensHub {\n    function getFollowNFT(uint256 profileId) external view returns (address) {return 0x0000000000000000000000000000000000000000;}\n\n    function defaultProfile(address wallet) external view returns (uint256) {return 0;}\n\n    function getProfileIdByHandle(string calldata handle) external view returns (uint256) {return 0;}\n}\n\ncontract MetaSnap {\n\n    LensHub _lensHub;\n    mapping(uint256 => Giveaway[]) _giveaways;\n\n    struct Giveaway {\n        address donor;\n        uint256 profileID;\n        uint256 amount;\n        address winner;\n    }\n\n    constructor() public {\n        address watch_addr = 0x038B86d9d8FAFdd0a02ebd1A476432877b0107C8;\n        _lensHub = LensHub(watch_addr);\n        console.log('constructor');\n        interact();\n        createGiveaway(1, 12);\n        createGiveaway(1, 13);\n        console.log('constructor finsihed');\n    }\n\n    function interact() public view returns (address[] memory){\n        address followNFTAddr = _lensHub.getFollowNFT(1);\n        IERC721Enumerable followNFT = IERC721Enumerable(followNFTAddr);\n        uint256 totalSupply = followNFT.totalSupply();\n        console.log(\"Follower:\");\n        address[] memory follower = new address[](totalSupply);\n        for (uint256 i = 1; i <= totalSupply; i++) {\n            follower[i - 1] = followNFT.ownerOf(i);\n            console.log(followNFT.ownerOf(i));\n        }\n        return follower;\n        //defaultProfile(address wallet)\n        //getHandle(uint256 profileId)\n        //getProfileIdByHandle(string calldata handle)\n    }\n\n    function getFollower(uint256 profileID) public view returns (address[] memory){\n        IERC721Enumerable followNFT = IERC721Enumerable(_lensHub.getFollowNFT(profileID));\n        uint256 totalSupply = followNFT.totalSupply();\n        address[] memory follower = new address[](totalSupply);\n        for (uint256 i = 1; i <= totalSupply; i++) {\n            follower[i - 1] = followNFT.ownerOf(i);\n        }\n        return follower;\n    }\n\n    function createGiveaway(uint256 profileID, uint256 amount) public returns (Giveaway[] memory) {\n        console.log('createGiveaway');\n        address winner = _getRandomFollowerAddress(profileID);\n        console.log('createGiveaway2');\n        Giveaway memory giveaway = Giveaway(msg.sender, profileID, _giveaways[profileID].length, winner);\n        console.log('createGiveaway3');\n        _giveaways[profileID].push(giveaway);\n        console.log('createGiveaway4');\n        return _giveaways[profileID];\n    }\n\n    function getProfileIdByHandle(string calldata handle) public view returns (uint256){\n        return _lensHub.getProfileIdByHandle(handle);\n    }\n\n    function _getRandomFollowerAddress(uint256 profileID) private returns (address) {\n        console.log('_getRandomFollowerAddress');\n        address watch_addr = 0x038B86d9d8FAFdd0a02ebd1A476432877b0107C8;\n        console.log('_getRandomFollowerAddress2');\n        _lensHub = LensHub(watch_addr);\n        console.log('_getRandomFollowerAddress3');\n        IERC721Enumerable followNFT = IERC721Enumerable(_lensHub.getFollowNFT(profileID));\n        console.log('_getRandomFollowerAddress4');\n        uint256 totalSupply = followNFT.totalSupply();\n        console.log('_getRandomFollowerAddress5');\n        uint256 random_number = uint256(keccak256(abi.encodePacked(block.difficulty, block.timestamp)));\n        console.log('_getRandomFollowerAddress6');\n        console.log(random_number);\n        console.log(totalSupply);\n        uint256 winnerIndex = 1 + random_number % totalSupply;\n        console.log(winnerIndex);\n        return followNFT.ownerOf(winnerIndex);\n    }\n\n}\n",
  "sourcePath": "/Users/korbinianabstreiter/crytoprojects/lens-giveaway/contracts/MetaSnap.sol",
  "compiler": {
    "name": "solc",
    "version": "0.8.13+commit.abaa5c0e.Emscripten.clang"
  },
  "schemaVersion": "3.4.5",
  "updatedAt": "2022-03-19T12:50:10.350Z",
  "networkType": "ethereum",
  "devdoc": {
    "kind": "dev",
    "methods": {},
    "version": 1
  },
  "userdoc": {
    "kind": "user",
    "methods": {},
    "version": 1
  }
}